{
  "contractName": "ArticleContract",
  "abi": [
    {
      "inputs": [
        {
          "internalType": "address",
          "name": "_tokenAddress",
          "type": "address"
        }
      ],
      "stateMutability": "nonpayable",
      "type": "constructor"
    },
    {
      "anonymous": false,
      "inputs": [
        {
          "indexed": false,
          "internalType": "uint256",
          "name": "id",
          "type": "uint256"
        },
        {
          "indexed": false,
          "internalType": "string",
          "name": "title",
          "type": "string"
        },
        {
          "indexed": false,
          "internalType": "string",
          "name": "description",
          "type": "string"
        },
        {
          "indexed": false,
          "internalType": "uint256",
          "name": "createdAt",
          "type": "uint256"
        },
        {
          "indexed": false,
          "internalType": "uint256",
          "name": "votesYes",
          "type": "uint256"
        },
        {
          "indexed": false,
          "internalType": "uint256",
          "name": "votesNo",
          "type": "uint256"
        },
        {
          "indexed": false,
          "internalType": "uint256",
          "name": "price",
          "type": "uint256"
        },
        {
          "indexed": false,
          "internalType": "uint256",
          "name": "expires",
          "type": "uint256"
        }
      ],
      "name": "ArticleCreated",
      "type": "event"
    },
    {
      "anonymous": false,
      "inputs": [
        {
          "indexed": false,
          "internalType": "uint256",
          "name": "id",
          "type": "uint256"
        },
        {
          "indexed": false,
          "internalType": "string",
          "name": "title",
          "type": "string"
        },
        {
          "indexed": false,
          "internalType": "string",
          "name": "description",
          "type": "string"
        },
        {
          "indexed": false,
          "internalType": "uint256",
          "name": "createdAt",
          "type": "uint256"
        },
        {
          "indexed": false,
          "internalType": "uint256",
          "name": "votesYes",
          "type": "uint256"
        },
        {
          "indexed": false,
          "internalType": "uint256",
          "name": "votesNo",
          "type": "uint256"
        },
        {
          "indexed": false,
          "internalType": "uint256",
          "name": "price",
          "type": "uint256"
        },
        {
          "indexed": false,
          "internalType": "uint256",
          "name": "expires",
          "type": "uint256"
        }
      ],
      "name": "ArticleUpdated",
      "type": "event"
    },
    {
      "anonymous": false,
      "inputs": [
        {
          "indexed": true,
          "internalType": "address",
          "name": "previousOwner",
          "type": "address"
        },
        {
          "indexed": true,
          "internalType": "address",
          "name": "newOwner",
          "type": "address"
        }
      ],
      "name": "OwnershipTransferred",
      "type": "event"
    },
    {
      "inputs": [
        {
          "internalType": "uint256",
          "name": "",
          "type": "uint256"
        }
      ],
      "name": "articles",
      "outputs": [
        {
          "internalType": "uint256",
          "name": "id",
          "type": "uint256"
        },
        {
          "internalType": "string",
          "name": "title",
          "type": "string"
        },
        {
          "internalType": "string",
          "name": "description",
          "type": "string"
        },
        {
          "internalType": "uint256",
          "name": "createdAt",
          "type": "uint256"
        },
        {
          "internalType": "uint256",
          "name": "votesYes",
          "type": "uint256"
        },
        {
          "internalType": "uint256",
          "name": "votesNo",
          "type": "uint256"
        },
        {
          "internalType": "uint256",
          "name": "price",
          "type": "uint256"
        },
        {
          "internalType": "uint256",
          "name": "expires",
          "type": "uint256"
        }
      ],
      "stateMutability": "view",
      "type": "function",
      "constant": true
    },
    {
      "inputs": [],
      "name": "articlesCounter",
      "outputs": [
        {
          "internalType": "uint256",
          "name": "",
          "type": "uint256"
        }
      ],
      "stateMutability": "view",
      "type": "function",
      "constant": true
    },
    {
      "inputs": [],
      "name": "owner",
      "outputs": [
        {
          "internalType": "address",
          "name": "",
          "type": "address"
        }
      ],
      "stateMutability": "view",
      "type": "function",
      "constant": true
    },
    {
      "inputs": [],
      "name": "renounceOwnership",
      "outputs": [],
      "stateMutability": "nonpayable",
      "type": "function"
    },
    {
      "inputs": [
        {
          "internalType": "address",
          "name": "newOwner",
          "type": "address"
        }
      ],
      "name": "transferOwnership",
      "outputs": [],
      "stateMutability": "nonpayable",
      "type": "function"
    },
    {
      "inputs": [
        {
          "internalType": "string",
          "name": "_title",
          "type": "string"
        },
        {
          "internalType": "string",
          "name": "_description",
          "type": "string"
        },
        {
          "internalType": "uint256",
          "name": "_price",
          "type": "uint256"
        },
        {
          "internalType": "uint256",
          "name": "_expires",
          "type": "uint256"
        }
      ],
      "name": "createArticle",
      "outputs": [],
      "stateMutability": "nonpayable",
      "type": "function"
    },
    {
      "inputs": [
        {
          "internalType": "uint256",
          "name": "articleID",
          "type": "uint256"
        },
        {
          "internalType": "enum ArticleContract.VoteState",
          "name": "state",
          "type": "uint8"
        }
      ],
      "name": "addVoteToArticle",
      "outputs": [],
      "stateMutability": "nonpayable",
      "type": "function"
    },
    {
      "inputs": [
        {
          "internalType": "uint256",
          "name": "articleID",
          "type": "uint256"
        }
      ],
      "name": "removeVoteToArticle",
      "outputs": [],
      "stateMutability": "nonpayable",
      "type": "function"
    },
    {
      "inputs": [
        {
          "internalType": "uint256",
          "name": "articleID",
          "type": "uint256"
        }
      ],
      "name": "endArticle",
      "outputs": [],
      "stateMutability": "nonpayable",
      "type": "function"
    },
    {
      "inputs": [
        {
          "internalType": "uint256",
          "name": "articleID",
          "type": "uint256"
        }
      ],
      "name": "votedStateBySender",
      "outputs": [
        {
          "internalType": "enum ArticleContract.VoteState",
          "name": "",
          "type": "uint8"
        }
      ],
      "stateMutability": "view",
      "type": "function",
      "constant": true
    }
  ],
  "bytecode": "0x608060405260006001553480156200001657600080fd5b50604051620021193803806200211983398181016040528101906200003c9190620003bb565b6200005c620000506200013460201b60201c565b6200013c60201b60201c565b6200006d336200013c60201b60201c565b80600260006101000a81548173ffffffffffffffffffffffffffffffffffffffff021916908373ffffffffffffffffffffffffffffffffffffffff1602179055506200012d6040518060400160405280601081526020017f4d792066697273742061727469636c65000000000000000000000000000000008152506040518060400160405280600b81526020017f48656c6c6f20776f726c640000000000000000000000000000000000000000008152506005426200020060201b60201c565b50620006a2565b600033905090565b60008060009054906101000a900473ffffffffffffffffffffffffffffffffffffffff169050816000806101000a81548173ffffffffffffffffffffffffffffffffffffffff021916908373ffffffffffffffffffffffffffffffffffffffff1602179055508173ffffffffffffffffffffffffffffffffffffffff168173ffffffffffffffffffffffffffffffffffffffff167f8be0079c531659141344cd1fd0a4f28419497f9722a3daafe3b4186f6b6457e060405160405180910390a35050565b600160008154809291906200021590620005c6565b91905055506000600360006001548152602001908152602001600020905060015481600001819055508481600101908051906020019062000258929190620002f4565b508381600201908051906020019062000273929190620002f4565b5042816003018190555060008160040181905550600081600501819055508281600601819055508181600701819055507f843bf2cb05b6b6ddca24e67550462e05a642d4368ac6036938cb9eb6b46b80106001548686426000808989604051620002e598979695949392919062000450565b60405180910390a15050505050565b828054620003029062000590565b90600052602060002090601f01602090048101928262000326576000855562000372565b82601f106200034157805160ff191683800117855562000372565b8280016001018555821562000372579182015b828111156200037157825182559160200191906001019062000354565b5b50905062000381919062000385565b5090565b5b80821115620003a057600081600090555060010162000386565b5090565b600081519050620003b58162000688565b92915050565b600060208284031215620003d457620003d362000672565b5b6000620003e484828501620003a4565b91505092915050565b620003f88162000546565b82525050565b60006200040b82620004ec565b620004178185620004f7565b9350620004298185602086016200055a565b620004348162000677565b840191505092915050565b6200044a816200053c565b82525050565b60006101008201905062000468600083018b6200043f565b81810360208301526200047c818a620003fe565b90508181036040830152620004928189620003fe565b9050620004a360608301886200043f565b620004b26080830187620003ed565b620004c160a0830186620003ed565b620004d060c08301856200043f565b620004df60e08301846200043f565b9998505050505050505050565b600081519050919050565b600082825260208201905092915050565b600062000515826200051c565b9050919050565b600073ffffffffffffffffffffffffffffffffffffffff82169050919050565b6000819050919050565b600062000553826200053c565b9050919050565b60005b838110156200057a5780820151818401526020810190506200055d565b838111156200058a576000848401525b50505050565b60006002820490506001821680620005a957607f821691505b60208210811415620005c057620005bf62000643565b5b50919050565b6000620005d3826200053c565b91507fffffffffffffffffffffffffffffffffffffffffffffffffffffffffffffffff82141562000609576200060862000614565b5b600182019050919050565b7f4e487b7100000000000000000000000000000000000000000000000000000000600052601160045260246000fd5b7f4e487b7100000000000000000000000000000000000000000000000000000000600052602260045260246000fd5b600080fd5b6000601f19601f8301169050919050565b620006938162000508565b81146200069f57600080fd5b50565b611a6780620006b26000396000f3fe608060405234801561001057600080fd5b506004361061009e5760003560e01c80638da5cb5b116100665780638da5cb5b14610133578063959e1e2a14610151578063cfb569ee1461016d578063edcfafe614610189578063f2fde38b146101c05761009e565b806306c4f015146100a35780636621404c146100bf578063715018a6146100dd5780637449b298146100e757806385aa041a14610103575b600080fd5b6100bd60048036038101906100b89190611008565b6101dc565b005b6100c76102c8565b6040516100d4919061138e565b60405180910390f35b6100e56102ce565b005b61010160048036038101906100fc91906110a7565b610356565b005b61011d600480360381019061011891906110a7565b6104f1565b60405161012a91906112d3565b60405180910390f35b61013b6105b5565b60405161014891906112b8565b60405180910390f35b61016b600480360381019061016691906110a7565b6105de565b005b610187600480360381019061018291906110d4565b6108d0565b005b6101a3600480360381019061019e91906110a7565b610b6d565b6040516101b7989796959493929190611435565b60405180910390f35b6101da60048036038101906101d59190610fdb565b610cc5565b005b600160008154809291906101ef90611776565b919050555060006003600060015481526020019081526020016000209050600154816000018190555084816001019080519060200190610230929190610e89565b5083816002019080519060200190610249929190610e89565b5042816003018190555060008160040181905550600081600501819055508281600601819055508181600701819055507f843bf2cb05b6b6ddca24e67550462e05a642d4368ac6036938cb9eb6b46b801060015486864260008089896040516102b99897969594939291906113a9565b60405180910390a15050505050565b60015481565b6102d6610dbd565b73ffffffffffffffffffffffffffffffffffffffff166102f46105b5565b73ffffffffffffffffffffffffffffffffffffffff161461034a576040517f08c379a00000000000000000000000000000000000000000000000000000000081526004016103419061132e565b60405180910390fd5b6103546000610dc5565b565b61035e610dbd565b73ffffffffffffffffffffffffffffffffffffffff1661037c6105b5565b73ffffffffffffffffffffffffffffffffffffffff16146103d2576040517f08c379a00000000000000000000000000000000000000000000000000000000081526004016103c99061132e565b60405180910390fd5b808060036000838152602001908152602001600020600001541461042b576040517f08c379a00000000000000000000000000000000000000000000000000000000081526004016104229061134e565b60405180910390fd5b60006003600084815260200190815260200160002090508060050154816004015411156104e457600260009054906101000a900473ffffffffffffffffffffffffffffffffffffffff1673ffffffffffffffffffffffffffffffffffffffff166391c05b0b82600601546040518263ffffffff1660e01b81526004016104b1919061138e565b600060405180830381600087803b1580156104cb57600080fd5b505af11580156104df573d6000803e3d6000fd5b505050505b8060000160009055505050565b6000818060036000838152602001908152602001600020600001541461054c576040517f08c379a00000000000000000000000000000000000000000000000000000000081526004016105439061134e565b60405180910390fd5b6003600084815260200190815260200160002060080160003373ffffffffffffffffffffffffffffffffffffffff1673ffffffffffffffffffffffffffffffffffffffff16815260200190815260200160002060009054906101000a900460ff16915050919050565b60008060009054906101000a900473ffffffffffffffffffffffffffffffffffffffff16905090565b8080600360008381526020019081526020016000206000015414610637576040517f08c379a000000000000000000000000000000000000000000000000000000000815260040161062e9061134e565b60405180910390fd5b816000600281111561064c5761064b6117ee565b5b6003600083815260200190815260200160002060080160003373ffffffffffffffffffffffffffffffffffffffff1673ffffffffffffffffffffffffffffffffffffffff16815260200190815260200160002060009054906101000a900460ff1660028111156106bf576106be6117ee565b5b1415610700576040517f08c379a00000000000000000000000000000000000000000000000000000000081526004016106f79061130e565b60405180910390fd5b600060036000858152602001908152602001600020905060008160080160003373ffffffffffffffffffffffffffffffffffffffff1673ffffffffffffffffffffffffffffffffffffffff16815260200190815260200160002060009054906101000a900460ff1690506001600281111561077e5761077d6117ee565b5b816002811115610791576107906117ee565b5b14156107b557600182600401546107a8919061162a565b82600401819055506107fc565b6002808111156107c8576107c76117ee565b5b8160028111156107db576107da6117ee565b5b14156107fb57600182600501546107f2919061162a565b82600501819055505b5b60008260080160003373ffffffffffffffffffffffffffffffffffffffff1673ffffffffffffffffffffffffffffffffffffffff16815260200190815260200160002060006101000a81548160ff02191690836002811115610861576108606117ee565b5b02179055507fdb3ba936aa315f694b5203477bfcacdac0f04bca11b5f31e568c3602a93340d582600001548360010184600201856003015486600401548760050154886006015489600701546040516108c19897969594939291906114c1565b60405180910390a15050505050565b8180600360008381526020019081526020016000206000015414610929576040517f08c379a00000000000000000000000000000000000000000000000000000000081526004016109209061134e565b60405180910390fd5b826000600281111561093e5761093d6117ee565b5b6003600083815260200190815260200160002060080160003373ffffffffffffffffffffffffffffffffffffffff1673ffffffffffffffffffffffffffffffffffffffff16815260200190815260200160002060009054906101000a900460ff1660028111156109b1576109b06117ee565b5b146109f1576040517f08c379a00000000000000000000000000000000000000000000000000000000081526004016109e89061136e565b60405180910390fd5b600060036000868152602001908152602001600020905060016002811115610a1c57610a1b6117ee565b5b846002811115610a2f57610a2e6117ee565b5b1415610a535760018160040154610a4691906115d4565b8160040181905550610a9a565b600280811115610a6657610a656117ee565b5b846002811115610a7957610a786117ee565b5b1415610a995760018160050154610a9091906115d4565b81600501819055505b5b838160080160003373ffffffffffffffffffffffffffffffffffffffff1673ffffffffffffffffffffffffffffffffffffffff16815260200190815260200160002060006101000a81548160ff02191690836002811115610afe57610afd6117ee565b5b02179055507fdb3ba936aa315f694b5203477bfcacdac0f04bca11b5f31e568c3602a93340d58160000154826001018360020184600301548560040154866005015487600601548860070154604051610b5e9897969594939291906114c1565b60405180910390a15050505050565b6003602052806000526040600020600091509050806000015490806001018054610b9690611713565b80601f0160208091040260200160405190810160405280929190818152602001828054610bc290611713565b8015610c0f5780601f10610be457610100808354040283529160200191610c0f565b820191906000526020600020905b815481529060010190602001808311610bf257829003601f168201915b505050505090806002018054610c2490611713565b80601f0160208091040260200160405190810160405280929190818152602001828054610c5090611713565b8015610c9d5780601f10610c7257610100808354040283529160200191610c9d565b820191906000526020600020905b815481529060010190602001808311610c8057829003601f168201915b5050505050908060030154908060040154908060050154908060060154908060070154905088565b610ccd610dbd565b73ffffffffffffffffffffffffffffffffffffffff16610ceb6105b5565b73ffffffffffffffffffffffffffffffffffffffff1614610d41576040517f08c379a0000000000000000000000000000000000000000000000000000000008152600401610d389061132e565b60405180910390fd5b600073ffffffffffffffffffffffffffffffffffffffff168173ffffffffffffffffffffffffffffffffffffffff161415610db1576040517f08c379a0000000000000000000000000000000000000000000000000000000008152600401610da8906112ee565b60405180910390fd5b610dba81610dc5565b50565b600033905090565b60008060009054906101000a900473ffffffffffffffffffffffffffffffffffffffff169050816000806101000a81548173ffffffffffffffffffffffffffffffffffffffff021916908373ffffffffffffffffffffffffffffffffffffffff1602179055508173ffffffffffffffffffffffffffffffffffffffff168173ffffffffffffffffffffffffffffffffffffffff167f8be0079c531659141344cd1fd0a4f28419497f9722a3daafe3b4186f6b6457e060405160405180910390a35050565b828054610e9590611713565b90600052602060002090601f016020900481019282610eb75760008555610efe565b82601f10610ed057805160ff1916838001178555610efe565b82800160010185558215610efe579182015b82811115610efd578251825591602001919060010190610ee2565b5b509050610f0b9190610f0f565b5090565b5b80821115610f28576000816000905550600101610f10565b5090565b6000610f3f610f3a84611572565b61154d565b905082815260208101848484011115610f5b57610f5a611880565b5b610f668482856116d1565b509392505050565b600081359050610f7d816119f3565b92915050565b600081359050610f9281611a0a565b92915050565b600082601f830112610fad57610fac61187b565b5b8135610fbd848260208601610f2c565b91505092915050565b600081359050610fd581611a1a565b92915050565b600060208284031215610ff157610ff061188a565b5b6000610fff84828501610f6e565b91505092915050565b600080600080608085870312156110225761102161188a565b5b600085013567ffffffffffffffff8111156110405761103f611885565b5b61104c87828801610f98565b945050602085013567ffffffffffffffff81111561106d5761106c611885565b5b61107987828801610f98565b935050604061108a87828801610fc6565b925050606061109b87828801610fc6565b91505092959194509250565b6000602082840312156110bd576110bc61188a565b5b60006110cb84828501610fc6565b91505092915050565b600080604083850312156110eb576110ea61188a565b5b60006110f985828601610fc6565b925050602061110a85828601610f83565b9150509250929050565b61111d8161165e565b82525050565b61112c816116ad565b82525050565b61113b816116bf565b82525050565b600061114c826115b8565b61115681856115c3565b93506111668185602086016116e0565b61116f8161188f565b840191505092915050565b6000815461118781611713565b61119181866115c3565b945060018216600081146111ac57600181146111be576111f1565b60ff19831686526020860193506111f1565b6111c7856115a3565b60005b838110156111e9578154818901526001820191506020810190506111ca565b808801955050505b50505092915050565b60006112076026836115c3565b9150611212826118a0565b604082019050919050565b600061122a601d836115c3565b9150611235826118ef565b602082019050919050565b600061124d6020836115c3565b915061125882611918565b602082019050919050565b6000611270602d836115c3565b915061127b82611941565b604082019050919050565b60006112936021836115c3565b915061129e82611990565b604082019050919050565b6112b2816116a3565b82525050565b60006020820190506112cd6000830184611114565b92915050565b60006020820190506112e86000830184611123565b92915050565b60006020820190508181036000830152611307816111fa565b9050919050565b600060208201905081810360008301526113278161121d565b9050919050565b6000602082019050818103600083015261134781611240565b9050919050565b6000602082019050818103600083015261136781611263565b9050919050565b6000602082019050818103600083015261138781611286565b9050919050565b60006020820190506113a360008301846112a9565b92915050565b6000610100820190506113bf600083018b6112a9565b81810360208301526113d1818a611141565b905081810360408301526113e58189611141565b90506113f460608301886112a9565b6114016080830187611132565b61140e60a0830186611132565b61141b60c08301856112a9565b61142860e08301846112a9565b9998505050505050505050565b60006101008201905061144b600083018b6112a9565b818103602083015261145d818a611141565b905081810360408301526114718189611141565b905061148060608301886112a9565b61148d60808301876112a9565b61149a60a08301866112a9565b6114a760c08301856112a9565b6114b460e08301846112a9565b9998505050505050505050565b6000610100820190506114d7600083018b6112a9565b81810360208301526114e9818a61117a565b905081810360408301526114fd818961117a565b905061150c60608301886112a9565b61151960808301876112a9565b61152660a08301866112a9565b61153360c08301856112a9565b61154060e08301846112a9565b9998505050505050505050565b6000611557611568565b90506115638282611745565b919050565b6000604051905090565b600067ffffffffffffffff82111561158d5761158c61184c565b5b6115968261188f565b9050602081019050919050565b60008190508160005260206000209050919050565b600081519050919050565b600082825260208201905092915050565b60006115df826116a3565b91506115ea836116a3565b9250827fffffffffffffffffffffffffffffffffffffffffffffffffffffffffffffffff0382111561161f5761161e6117bf565b5b828201905092915050565b6000611635826116a3565b9150611640836116a3565b925082821015611653576116526117bf565b5b828203905092915050565b600061166982611683565b9050919050565b600081905061167e826119df565b919050565b600073ffffffffffffffffffffffffffffffffffffffff82169050919050565b6000819050919050565b60006116b882611670565b9050919050565b60006116ca826116a3565b9050919050565b82818337600083830152505050565b60005b838110156116fe5780820151818401526020810190506116e3565b8381111561170d576000848401525b50505050565b6000600282049050600182168061172b57607f821691505b6020821081141561173f5761173e61181d565b5b50919050565b61174e8261188f565b810181811067ffffffffffffffff8211171561176d5761176c61184c565b5b80604052505050565b6000611781826116a3565b91507fffffffffffffffffffffffffffffffffffffffffffffffffffffffffffffffff8214156117b4576117b36117bf565b5b600182019050919050565b7f4e487b7100000000000000000000000000000000000000000000000000000000600052601160045260246000fd5b7f4e487b7100000000000000000000000000000000000000000000000000000000600052602160045260246000fd5b7f4e487b7100000000000000000000000000000000000000000000000000000000600052602260045260246000fd5b7f4e487b7100000000000000000000000000000000000000000000000000000000600052604160045260246000fd5b600080fd5b600080fd5b600080fd5b600080fd5b6000601f19601f8301169050919050565b7f4f776e61626c653a206e6577206f776e657220697320746865207a65726f206160008201527f6464726573730000000000000000000000000000000000000000000000000000602082015250565b7f41727469636c6520776173206e6f7420766f74656420627920796f7521000000600082015250565b7f4f776e61626c653a2063616c6c6572206973206e6f7420746865206f776e6572600082015250565b7f41727469636c652077697468207468652072657175657374656420494420646f60008201527f6573206e6f742065786973742100000000000000000000000000000000000000602082015250565b7f41727469636c652077617320616c726561647920766f74656420627920796f7560008201527f2100000000000000000000000000000000000000000000000000000000000000602082015250565b600381106119f0576119ef6117ee565b5b50565b6119fc8161165e565b8114611a0757600080fd5b50565b60038110611a1757600080fd5b50565b611a23816116a3565b8114611a2e57600080fd5b5056fea26469706673582212201aec7552d028446af3e6ec7f1b2d5257a8d5a5a3afd51e082075b7a8127cde1c64736f6c63430008060033",
  "immutableReferences": {},
  "source": "// SPDX-License-Identifier: MIT\npragma solidity ^0.8.6;\n\nimport \"./itoken.sol\";\nimport \"@openzeppelin/contracts/access/Ownable.sol\";\n\ncontract ArticleContract is Ownable {\n    uint256 public articlesCounter = 0;\n    address private tokenAddress;\n    mapping(uint256 => Article) public articles;\n\n    enum VoteState {\n        None,\n        Yes,\n        No\n    }\n\n    // Structs\n    struct Article {\n        uint256 id;\n        string title;\n        string description;\n        uint256 createdAt;\n        uint256 votesYes;\n        uint256 votesNo;\n        uint256 price;\n        uint256 expires;\n        mapping(address => VoteState) addressesWithVote;\n    }\n    // End of structs\n\n    // Modifiers\n    modifier articleExists(uint256 articleID) {\n        require(\n            articles[articleID].id == articleID,\n            \"Article with the requested ID does not exist!\"\n        );\n        _;\n    }\n\n    modifier hasNotVoted(uint256 articleID) {\n        require(\n            articles[articleID].addressesWithVote[msg.sender] == VoteState.None,\n            \"Article was already voted by you!\"\n        );\n        _;\n    }\n\n    modifier hasVoted(uint256 articleID) {\n        require(\n            articles[articleID].addressesWithVote[msg.sender] != VoteState.None,\n            \"Article was not voted by you!\"\n        );\n        _;\n    }\n    // End of modifier\n\n    // Events\n    event ArticleCreated(\n        uint256 id,\n        string title,\n        string description,\n        uint256 createdAt,\n        uint256 votesYes,\n        uint256 votesNo,\n        uint256 price,\n        uint256 expires\n    );\n\n    event ArticleUpdated(\n        uint256 id,\n        string title,\n        string description,\n        uint256 createdAt,\n        uint256 votesYes,\n        uint256 votesNo,\n        uint256 price,\n        uint256 expires\n    );\n\n    // End of events\n\n    constructor(address _tokenAddress) {\n        _transferOwnership(msg.sender);\n        tokenAddress = _tokenAddress;\n        createArticle(\"My first article\", \"Hello world\", 5, block.timestamp);\n    }\n\n    function createArticle(\n        string memory _title,\n        string memory _description,\n        uint256 _price,\n        uint256 _expires\n    ) public {\n        articlesCounter++;\n\n        Article storage _newArticle = articles[articlesCounter];\n\n        _newArticle.id = articlesCounter;\n        _newArticle.title = _title;\n        _newArticle.description = _description;\n        _newArticle.createdAt = block.timestamp;\n        _newArticle.votesYes = 0;\n        _newArticle.votesNo = 0;\n        _newArticle.price = _price;\n        _newArticle.expires = _expires;\n\n        emit ArticleCreated(\n            articlesCounter,\n            _title,\n            _description,\n            block.timestamp,\n            0,\n            0,\n            _price,\n            _expires\n        );\n    }\n\n    function addVoteToArticle(uint256 articleID, VoteState state)\n        public\n        articleExists(articleID)\n        hasNotVoted(articleID)\n    {\n        Article storage _articleToUpdate = articles[articleID];\n        if (state == VoteState.Yes)\n            _articleToUpdate.votesYes = _articleToUpdate.votesYes + 1;\n        else if (state == VoteState.No)\n            _articleToUpdate.votesNo = _articleToUpdate.votesNo + 1;\n\n        _articleToUpdate.addressesWithVote[msg.sender] = state;\n\n        emit ArticleUpdated(\n            _articleToUpdate.id,\n            _articleToUpdate.title,\n            _articleToUpdate.description,\n            _articleToUpdate.createdAt,\n            _articleToUpdate.votesYes,\n            _articleToUpdate.votesNo,\n            _articleToUpdate.price,\n            _articleToUpdate.expires\n        );\n    }\n\n    function removeVoteToArticle(uint256 articleID)\n        public\n        articleExists(articleID)\n        hasVoted(articleID)\n    {\n        Article storage _articleToUpdate = articles[articleID];\n        VoteState state = _articleToUpdate.addressesWithVote[msg.sender];\n        if (state == VoteState.Yes)\n            _articleToUpdate.votesYes = _articleToUpdate.votesYes - 1;\n        else if (state == VoteState.No)\n            _articleToUpdate.votesNo = _articleToUpdate.votesNo - 1;\n        _articleToUpdate.addressesWithVote[msg.sender] = VoteState.None;\n\n        emit ArticleUpdated(\n            _articleToUpdate.id,\n            _articleToUpdate.title,\n            _articleToUpdate.description,\n            _articleToUpdate.createdAt,\n            _articleToUpdate.votesYes,\n            _articleToUpdate.votesNo,\n            _articleToUpdate.price,\n            _articleToUpdate.expires\n        );\n    }\n\n    function endArticle(uint256 articleID)\n        public\n        onlyOwner\n        articleExists(articleID)\n    {\n        Article storage article = articles[articleID];\n        if (article.votesYes > article.votesNo) {\n            Token(tokenAddress).distribute(article.price);\n        }\n        delete article.id;\n    }\n\n    function votedStateBySender(uint256 articleID)\n        public\n        view\n        articleExists(articleID)\n        returns (VoteState)\n    {\n        return articles[articleID].addressesWithVote[msg.sender];\n    }\n}\n",
  "sourcePath": "/home/ubuntu/workspace/carmen_task_vote/contracts/ArticleContract.sol",
  "compiler": {
    "name": "solc",
    "version": "0.8.6+commit.11564f7e.Emscripten.clang"
  },
  "schemaVersion": "3.4.7",
  "updatedAt": "2022-05-16T22:19:58.592Z",
  "networkType": "ethereum",
  "devdoc": {
    "kind": "dev",
    "methods": {
      "owner()": {
        "details": "Returns the address of the current owner."
      },
      "renounceOwnership()": {
        "details": "Leaves the contract without owner. It will not be possible to call `onlyOwner` functions anymore. Can only be called by the current owner. NOTE: Renouncing ownership will leave the contract without an owner, thereby removing any functionality that is only available to the owner."
      },
      "transferOwnership(address)": {
        "details": "Transfers ownership of the contract to a new account (`newOwner`). Can only be called by the current owner."
      }
    },
    "version": 1
  },
  "userdoc": {
    "kind": "user",
    "methods": {},
    "version": 1
  }
}