{
  "contractName": "ArticleContract",
  "abi": [
    {
      "inputs": [
        {
          "internalType": "address",
          "name": "_tokenAddress",
          "type": "address"
        }
      ],
      "stateMutability": "nonpayable",
      "type": "constructor"
    },
    {
      "anonymous": false,
      "inputs": [
        {
          "indexed": false,
          "internalType": "uint256",
          "name": "id",
          "type": "uint256"
        },
        {
          "indexed": false,
          "internalType": "string",
          "name": "title",
          "type": "string"
        },
        {
          "indexed": false,
          "internalType": "string",
          "name": "description",
          "type": "string"
        },
        {
          "indexed": false,
          "internalType": "uint256",
          "name": "createdAt",
          "type": "uint256"
        },
        {
          "indexed": false,
          "internalType": "uint256",
          "name": "votesYes",
          "type": "uint256"
        },
        {
          "indexed": false,
          "internalType": "uint256",
          "name": "votesNo",
          "type": "uint256"
        },
        {
          "indexed": false,
          "internalType": "uint256",
          "name": "price",
          "type": "uint256"
        },
        {
          "indexed": false,
          "internalType": "uint256",
          "name": "expires",
          "type": "uint256"
        }
      ],
      "name": "ArticleCreated",
      "type": "event"
    },
    {
      "anonymous": false,
      "inputs": [
        {
          "indexed": false,
          "internalType": "uint256",
          "name": "id",
          "type": "uint256"
        },
        {
          "indexed": false,
          "internalType": "string",
          "name": "title",
          "type": "string"
        },
        {
          "indexed": false,
          "internalType": "string",
          "name": "description",
          "type": "string"
        },
        {
          "indexed": false,
          "internalType": "uint256",
          "name": "createdAt",
          "type": "uint256"
        },
        {
          "indexed": false,
          "internalType": "uint256",
          "name": "votesYes",
          "type": "uint256"
        },
        {
          "indexed": false,
          "internalType": "uint256",
          "name": "votesNo",
          "type": "uint256"
        },
        {
          "indexed": false,
          "internalType": "uint256",
          "name": "price",
          "type": "uint256"
        },
        {
          "indexed": false,
          "internalType": "uint256",
          "name": "expires",
          "type": "uint256"
        },
        {
          "indexed": false,
          "internalType": "bool",
          "name": "ended",
          "type": "bool"
        }
      ],
      "name": "ArticleUpdated",
      "type": "event"
    },
    {
      "anonymous": false,
      "inputs": [
        {
          "indexed": true,
          "internalType": "address",
          "name": "previousOwner",
          "type": "address"
        },
        {
          "indexed": true,
          "internalType": "address",
          "name": "newOwner",
          "type": "address"
        }
      ],
      "name": "OwnershipTransferred",
      "type": "event"
    },
    {
      "inputs": [
        {
          "internalType": "uint256",
          "name": "",
          "type": "uint256"
        }
      ],
      "name": "articles",
      "outputs": [
        {
          "internalType": "uint256",
          "name": "id",
          "type": "uint256"
        },
        {
          "internalType": "string",
          "name": "title",
          "type": "string"
        },
        {
          "internalType": "string",
          "name": "description",
          "type": "string"
        },
        {
          "internalType": "uint256",
          "name": "createdAt",
          "type": "uint256"
        },
        {
          "internalType": "uint256",
          "name": "votesYes",
          "type": "uint256"
        },
        {
          "internalType": "uint256",
          "name": "votesNo",
          "type": "uint256"
        },
        {
          "internalType": "uint256",
          "name": "price",
          "type": "uint256"
        },
        {
          "internalType": "uint256",
          "name": "expires",
          "type": "uint256"
        },
        {
          "internalType": "bool",
          "name": "ended",
          "type": "bool"
        }
      ],
      "stateMutability": "view",
      "type": "function",
      "constant": true
    },
    {
      "inputs": [],
      "name": "articlesCounter",
      "outputs": [
        {
          "internalType": "uint256",
          "name": "",
          "type": "uint256"
        }
      ],
      "stateMutability": "view",
      "type": "function",
      "constant": true
    },
    {
      "inputs": [],
      "name": "owner",
      "outputs": [
        {
          "internalType": "address",
          "name": "",
          "type": "address"
        }
      ],
      "stateMutability": "view",
      "type": "function",
      "constant": true
    },
    {
      "inputs": [],
      "name": "renounceOwnership",
      "outputs": [],
      "stateMutability": "nonpayable",
      "type": "function"
    },
    {
      "inputs": [
        {
          "internalType": "address",
          "name": "newOwner",
          "type": "address"
        }
      ],
      "name": "transferOwnership",
      "outputs": [],
      "stateMutability": "nonpayable",
      "type": "function"
    },
    {
      "inputs": [
        {
          "internalType": "string",
          "name": "_title",
          "type": "string"
        },
        {
          "internalType": "string",
          "name": "_description",
          "type": "string"
        },
        {
          "internalType": "uint256",
          "name": "_price",
          "type": "uint256"
        },
        {
          "internalType": "uint256",
          "name": "_expires",
          "type": "uint256"
        }
      ],
      "name": "createArticle",
      "outputs": [],
      "stateMutability": "nonpayable",
      "type": "function"
    },
    {
      "inputs": [
        {
          "internalType": "uint256",
          "name": "articleID",
          "type": "uint256"
        },
        {
          "internalType": "enum ArticleContract.VoteState",
          "name": "state",
          "type": "uint8"
        }
      ],
      "name": "addVoteToArticle",
      "outputs": [],
      "stateMutability": "nonpayable",
      "type": "function"
    },
    {
      "inputs": [
        {
          "internalType": "uint256",
          "name": "articleID",
          "type": "uint256"
        }
      ],
      "name": "removeVoteToArticle",
      "outputs": [],
      "stateMutability": "nonpayable",
      "type": "function"
    },
    {
      "inputs": [
        {
          "internalType": "uint256",
          "name": "articleID",
          "type": "uint256"
        }
      ],
      "name": "endArticle",
      "outputs": [],
      "stateMutability": "nonpayable",
      "type": "function"
    },
    {
      "inputs": [
        {
          "internalType": "uint256",
          "name": "articleID",
          "type": "uint256"
        }
      ],
      "name": "votedStateBySender",
      "outputs": [
        {
          "internalType": "enum ArticleContract.VoteState",
          "name": "",
          "type": "uint8"
        }
      ],
      "stateMutability": "view",
      "type": "function",
      "constant": true
    }
  ],
  "bytecode": "0x608060405260006001553480156200001657600080fd5b50604051620022243803806200222483398181016040528101906200003c9190620003bb565b6200005c620000506200013460201b60201c565b6200013c60201b60201c565b6200006d336200013c60201b60201c565b80600260006101000a81548173ffffffffffffffffffffffffffffffffffffffff021916908373ffffffffffffffffffffffffffffffffffffffff1602179055506200012d6040518060400160405280601081526020017f4d792066697273742061727469636c65000000000000000000000000000000008152506040518060400160405280600b81526020017f48656c6c6f20776f726c640000000000000000000000000000000000000000008152506005426200020060201b60201c565b50620006a2565b600033905090565b60008060009054906101000a900473ffffffffffffffffffffffffffffffffffffffff169050816000806101000a81548173ffffffffffffffffffffffffffffffffffffffff021916908373ffffffffffffffffffffffffffffffffffffffff1602179055508173ffffffffffffffffffffffffffffffffffffffff168173ffffffffffffffffffffffffffffffffffffffff167f8be0079c531659141344cd1fd0a4f28419497f9722a3daafe3b4186f6b6457e060405160405180910390a35050565b600160008154809291906200021590620005c6565b91905055506000600360006001548152602001908152602001600020905060015481600001819055508481600101908051906020019062000258929190620002f4565b508381600201908051906020019062000273929190620002f4565b5042816003018190555060008160040181905550600081600501819055508281600601819055508181600701819055507f843bf2cb05b6b6ddca24e67550462e05a642d4368ac6036938cb9eb6b46b80106001548686426000808989604051620002e598979695949392919062000450565b60405180910390a15050505050565b828054620003029062000590565b90600052602060002090601f01602090048101928262000326576000855562000372565b82601f106200034157805160ff191683800117855562000372565b8280016001018555821562000372579182015b828111156200037157825182559160200191906001019062000354565b5b50905062000381919062000385565b5090565b5b80821115620003a057600081600090555060010162000386565b5090565b600081519050620003b58162000688565b92915050565b600060208284031215620003d457620003d362000672565b5b6000620003e484828501620003a4565b91505092915050565b620003f88162000546565b82525050565b60006200040b82620004ec565b620004178185620004f7565b9350620004298185602086016200055a565b620004348162000677565b840191505092915050565b6200044a816200053c565b82525050565b60006101008201905062000468600083018b6200043f565b81810360208301526200047c818a620003fe565b90508181036040830152620004928189620003fe565b9050620004a360608301886200043f565b620004b26080830187620003ed565b620004c160a0830186620003ed565b620004d060c08301856200043f565b620004df60e08301846200043f565b9998505050505050505050565b600081519050919050565b600082825260208201905092915050565b600062000515826200051c565b9050919050565b600073ffffffffffffffffffffffffffffffffffffffff82169050919050565b6000819050919050565b600062000553826200053c565b9050919050565b60005b838110156200057a5780820151818401526020810190506200055d565b838111156200058a576000848401525b50505050565b60006002820490506001821680620005a957607f821691505b60208210811415620005c057620005bf62000643565b5b50919050565b6000620005d3826200053c565b91507fffffffffffffffffffffffffffffffffffffffffffffffffffffffffffffffff82141562000609576200060862000614565b5b600182019050919050565b7f4e487b7100000000000000000000000000000000000000000000000000000000600052601160045260246000fd5b7f4e487b7100000000000000000000000000000000000000000000000000000000600052602260045260246000fd5b600080fd5b6000601f19601f8301169050919050565b620006938162000508565b81146200069f57600080fd5b50565b611b7280620006b26000396000f3fe608060405234801561001057600080fd5b506004361061009e5760003560e01c80638da5cb5b116100665780638da5cb5b14610133578063959e1e2a14610151578063cfb569ee1461016d578063edcfafe614610189578063f2fde38b146101c15761009e565b806306c4f015146100a35780636621404c146100bf578063715018a6146100dd5780637449b298146100e757806385aa041a14610103575b600080fd5b6100bd60048036038101906100b891906110da565b6101dd565b005b6100c76102c9565b6040516100d4919061146f565b60405180910390f35b6100e56102cf565b005b61010160048036038101906100fc9190611179565b610357565b005b61011d60048036038101906101189190611179565b61058a565b60405161012a91906113b4565b60405180910390f35b61013b61064e565b6040516101489190611399565b60405180910390f35b61016b60048036038101906101669190611179565b610677565b005b610187600480360381019061018291906111a6565b61097c565b005b6101a3600480360381019061019e9190611179565b610c2c565b6040516101b899989796959493929190611516565b60405180910390f35b6101db60048036038101906101d691906110ad565b610d97565b005b600160008154809291906101f090611881565b919050555060006003600060015481526020019081526020016000209050600154816000018190555084816001019080519060200190610231929190610f5b565b508381600201908051906020019061024a929190610f5b565b5042816003018190555060008160040181905550600081600501819055508281600601819055508181600701819055507f843bf2cb05b6b6ddca24e67550462e05a642d4368ac6036938cb9eb6b46b801060015486864260008089896040516102ba98979695949392919061148a565b60405180910390a15050505050565b60015481565b6102d7610e8f565b73ffffffffffffffffffffffffffffffffffffffff166102f561064e565b73ffffffffffffffffffffffffffffffffffffffff161461034b576040517f08c379a00000000000000000000000000000000000000000000000000000000081526004016103429061140f565b60405180910390fd5b6103556000610e97565b565b61035f610e8f565b73ffffffffffffffffffffffffffffffffffffffff1661037d61064e565b73ffffffffffffffffffffffffffffffffffffffff16146103d3576040517f08c379a00000000000000000000000000000000000000000000000000000000081526004016103ca9061140f565b60405180910390fd5b808060036000838152602001908152602001600020600001541461042c576040517f08c379a00000000000000000000000000000000000000000000000000000000081526004016104239061142f565b60405180910390fd5b60006003600084815260200190815260200160002090508060050154816004015411156104e957600260009054906101000a900473ffffffffffffffffffffffffffffffffffffffff1673ffffffffffffffffffffffffffffffffffffffff166391c05b0b82600601546040518263ffffffff1660e01b81526004016104b2919061146f565b600060405180830381600087803b1580156104cc57600080fd5b505af11580156104e0573d6000803e3d6000fd5b505050506104f2565b80600001600090555b60018160080160006101000a81548160ff0219169083151502179055507f67a2bd465cd7fc7ace692f27024a5b232783a5a2ae9a899f6b61988bc250a54f81600001548260010183600201846003015485600401548660050154876006015488600701548960080160009054906101000a900460ff1660405161057d999897969594939291906115b1565b60405180910390a1505050565b600081806003600083815260200190815260200160002060000154146105e5576040517f08c379a00000000000000000000000000000000000000000000000000000000081526004016105dc9061142f565b60405180910390fd5b6003600084815260200190815260200160002060090160003373ffffffffffffffffffffffffffffffffffffffff1673ffffffffffffffffffffffffffffffffffffffff16815260200190815260200160002060009054906101000a900460ff16915050919050565b60008060009054906101000a900473ffffffffffffffffffffffffffffffffffffffff16905090565b80806003600083815260200190815260200160002060000154146106d0576040517f08c379a00000000000000000000000000000000000000000000000000000000081526004016106c79061142f565b60405180910390fd5b81600060028111156106e5576106e46118f9565b5b6003600083815260200190815260200160002060090160003373ffffffffffffffffffffffffffffffffffffffff1673ffffffffffffffffffffffffffffffffffffffff16815260200190815260200160002060009054906101000a900460ff166002811115610758576107576118f9565b5b1415610799576040517f08c379a0000000000000000000000000000000000000000000000000000000008152600401610790906113ef565b60405180910390fd5b600060036000858152602001908152602001600020905060008160090160003373ffffffffffffffffffffffffffffffffffffffff1673ffffffffffffffffffffffffffffffffffffffff16815260200190815260200160002060009054906101000a900460ff16905060016002811115610817576108166118f9565b5b81600281111561082a576108296118f9565b5b141561084e57600182600401546108419190611729565b8260040181905550610895565b600280811115610861576108606118f9565b5b816002811115610874576108736118f9565b5b1415610894576001826005015461088b9190611729565b82600501819055505b5b60008260090160003373ffffffffffffffffffffffffffffffffffffffff1673ffffffffffffffffffffffffffffffffffffffff16815260200190815260200160002060006101000a81548160ff021916908360028111156108fa576108f96118f9565b5b02179055507f67a2bd465cd7fc7ace692f27024a5b232783a5a2ae9a899f6b61988bc250a54f82600001548360010184600201856003015486600401548760050154886006015489600701548a60080160009054906101000a900460ff1660405161096d999897969594939291906115b1565b60405180910390a15050505050565b81806003600083815260200190815260200160002060000154146109d5576040517f08c379a00000000000000000000000000000000000000000000000000000000081526004016109cc9061142f565b60405180910390fd5b82600060028111156109ea576109e96118f9565b5b6003600083815260200190815260200160002060090160003373ffffffffffffffffffffffffffffffffffffffff1673ffffffffffffffffffffffffffffffffffffffff16815260200190815260200160002060009054906101000a900460ff166002811115610a5d57610a5c6118f9565b5b14610a9d576040517f08c379a0000000000000000000000000000000000000000000000000000000008152600401610a949061144f565b60405180910390fd5b600060036000868152602001908152602001600020905060016002811115610ac857610ac76118f9565b5b846002811115610adb57610ada6118f9565b5b1415610aff5760018160040154610af291906116d3565b8160040181905550610b46565b600280811115610b1257610b116118f9565b5b846002811115610b2557610b246118f9565b5b1415610b455760018160050154610b3c91906116d3565b81600501819055505b5b838160090160003373ffffffffffffffffffffffffffffffffffffffff1673ffffffffffffffffffffffffffffffffffffffff16815260200190815260200160002060006101000a81548160ff02191690836002811115610baa57610ba96118f9565b5b02179055507f67a2bd465cd7fc7ace692f27024a5b232783a5a2ae9a899f6b61988bc250a54f81600001548260010183600201846003015485600401548660050154876006015488600701548960080160009054906101000a900460ff16604051610c1d999897969594939291906115b1565b60405180910390a15050505050565b6003602052806000526040600020600091509050806000015490806001018054610c559061181e565b80601f0160208091040260200160405190810160405280929190818152602001828054610c819061181e565b8015610cce5780601f10610ca357610100808354040283529160200191610cce565b820191906000526020600020905b815481529060010190602001808311610cb157829003601f168201915b505050505090806002018054610ce39061181e565b80601f0160208091040260200160405190810160405280929190818152602001828054610d0f9061181e565b8015610d5c5780601f10610d3157610100808354040283529160200191610d5c565b820191906000526020600020905b815481529060010190602001808311610d3f57829003601f168201915b5050505050908060030154908060040154908060050154908060060154908060070154908060080160009054906101000a900460ff16905089565b610d9f610e8f565b73ffffffffffffffffffffffffffffffffffffffff16610dbd61064e565b73ffffffffffffffffffffffffffffffffffffffff1614610e13576040517f08c379a0000000000000000000000000000000000000000000000000000000008152600401610e0a9061140f565b60405180910390fd5b600073ffffffffffffffffffffffffffffffffffffffff168173ffffffffffffffffffffffffffffffffffffffff161415610e83576040517f08c379a0000000000000000000000000000000000000000000000000000000008152600401610e7a906113cf565b60405180910390fd5b610e8c81610e97565b50565b600033905090565b60008060009054906101000a900473ffffffffffffffffffffffffffffffffffffffff169050816000806101000a81548173ffffffffffffffffffffffffffffffffffffffff021916908373ffffffffffffffffffffffffffffffffffffffff1602179055508173ffffffffffffffffffffffffffffffffffffffff168173ffffffffffffffffffffffffffffffffffffffff167f8be0079c531659141344cd1fd0a4f28419497f9722a3daafe3b4186f6b6457e060405160405180910390a35050565b828054610f679061181e565b90600052602060002090601f016020900481019282610f895760008555610fd0565b82601f10610fa257805160ff1916838001178555610fd0565b82800160010185558215610fd0579182015b82811115610fcf578251825591602001919060010190610fb4565b5b509050610fdd9190610fe1565b5090565b5b80821115610ffa576000816000905550600101610fe2565b5090565b600061101161100c84611671565b61164c565b90508281526020810184848401111561102d5761102c61198b565b5b6110388482856117dc565b509392505050565b60008135905061104f81611afe565b92915050565b60008135905061106481611b15565b92915050565b600082601f83011261107f5761107e611986565b5b813561108f848260208601610ffe565b91505092915050565b6000813590506110a781611b25565b92915050565b6000602082840312156110c3576110c2611995565b5b60006110d184828501611040565b91505092915050565b600080600080608085870312156110f4576110f3611995565b5b600085013567ffffffffffffffff81111561111257611111611990565b5b61111e8782880161106a565b945050602085013567ffffffffffffffff81111561113f5761113e611990565b5b61114b8782880161106a565b935050604061115c87828801611098565b925050606061116d87828801611098565b91505092959194509250565b60006020828403121561118f5761118e611995565b5b600061119d84828501611098565b91505092915050565b600080604083850312156111bd576111bc611995565b5b60006111cb85828601611098565b92505060206111dc85828601611055565b9150509250929050565b6111ef8161175d565b82525050565b6111fe8161176f565b82525050565b61120d816117b8565b82525050565b61121c816117ca565b82525050565b600061122d826116b7565b61123781856116c2565b93506112478185602086016117eb565b6112508161199a565b840191505092915050565b600081546112688161181e565b61127281866116c2565b9450600182166000811461128d576001811461129f576112d2565b60ff19831686526020860193506112d2565b6112a8856116a2565b60005b838110156112ca578154818901526001820191506020810190506112ab565b808801955050505b50505092915050565b60006112e86026836116c2565b91506112f3826119ab565b604082019050919050565b600061130b601d836116c2565b9150611316826119fa565b602082019050919050565b600061132e6020836116c2565b915061133982611a23565b602082019050919050565b6000611351602d836116c2565b915061135c82611a4c565b604082019050919050565b60006113746021836116c2565b915061137f82611a9b565b604082019050919050565b611393816117ae565b82525050565b60006020820190506113ae60008301846111e6565b92915050565b60006020820190506113c96000830184611204565b92915050565b600060208201905081810360008301526113e8816112db565b9050919050565b60006020820190508181036000830152611408816112fe565b9050919050565b6000602082019050818103600083015261142881611321565b9050919050565b6000602082019050818103600083015261144881611344565b9050919050565b6000602082019050818103600083015261146881611367565b9050919050565b6000602082019050611484600083018461138a565b92915050565b6000610100820190506114a0600083018b61138a565b81810360208301526114b2818a611222565b905081810360408301526114c68189611222565b90506114d5606083018861138a565b6114e26080830187611213565b6114ef60a0830186611213565b6114fc60c083018561138a565b61150960e083018461138a565b9998505050505050505050565b60006101208201905061152c600083018c61138a565b818103602083015261153e818b611222565b90508181036040830152611552818a611222565b9050611561606083018961138a565b61156e608083018861138a565b61157b60a083018761138a565b61158860c083018661138a565b61159560e083018561138a565b6115a36101008301846111f5565b9a9950505050505050505050565b6000610120820190506115c7600083018c61138a565b81810360208301526115d9818b61125b565b905081810360408301526115ed818a61125b565b90506115fc606083018961138a565b611609608083018861138a565b61161660a083018761138a565b61162360c083018661138a565b61163060e083018561138a565b61163e6101008301846111f5565b9a9950505050505050505050565b6000611656611667565b90506116628282611850565b919050565b6000604051905090565b600067ffffffffffffffff82111561168c5761168b611957565b5b6116958261199a565b9050602081019050919050565b60008190508160005260206000209050919050565b600081519050919050565b600082825260208201905092915050565b60006116de826117ae565b91506116e9836117ae565b9250827fffffffffffffffffffffffffffffffffffffffffffffffffffffffffffffffff0382111561171e5761171d6118ca565b5b828201905092915050565b6000611734826117ae565b915061173f836117ae565b925082821015611752576117516118ca565b5b828203905092915050565b60006117688261178e565b9050919050565b60008115159050919050565b600081905061178982611aea565b919050565b600073ffffffffffffffffffffffffffffffffffffffff82169050919050565b6000819050919050565b60006117c38261177b565b9050919050565b60006117d5826117ae565b9050919050565b82818337600083830152505050565b60005b838110156118095780820151818401526020810190506117ee565b83811115611818576000848401525b50505050565b6000600282049050600182168061183657607f821691505b6020821081141561184a57611849611928565b5b50919050565b6118598261199a565b810181811067ffffffffffffffff8211171561187857611877611957565b5b80604052505050565b600061188c826117ae565b91507fffffffffffffffffffffffffffffffffffffffffffffffffffffffffffffffff8214156118bf576118be6118ca565b5b600182019050919050565b7f4e487b7100000000000000000000000000000000000000000000000000000000600052601160045260246000fd5b7f4e487b7100000000000000000000000000000000000000000000000000000000600052602160045260246000fd5b7f4e487b7100000000000000000000000000000000000000000000000000000000600052602260045260246000fd5b7f4e487b7100000000000000000000000000000000000000000000000000000000600052604160045260246000fd5b600080fd5b600080fd5b600080fd5b600080fd5b6000601f19601f8301169050919050565b7f4f776e61626c653a206e6577206f776e657220697320746865207a65726f206160008201527f6464726573730000000000000000000000000000000000000000000000000000602082015250565b7f41727469636c6520776173206e6f7420766f74656420627920796f7521000000600082015250565b7f4f776e61626c653a2063616c6c6572206973206e6f7420746865206f776e6572600082015250565b7f41727469636c652077697468207468652072657175657374656420494420646f60008201527f6573206e6f742065786973742100000000000000000000000000000000000000602082015250565b7f41727469636c652077617320616c726561647920766f74656420627920796f7560008201527f2100000000000000000000000000000000000000000000000000000000000000602082015250565b60038110611afb57611afa6118f9565b5b50565b611b078161175d565b8114611b1257600080fd5b50565b60038110611b2257600080fd5b50565b611b2e816117ae565b8114611b3957600080fd5b5056fea2646970667358221220c592e1ff2930f653da26e4cf0921500a0aab545d9a63a9cce677ce2a7145187964736f6c63430008060033",
  "immutableReferences": {},
  "source": "// SPDX-License-Identifier: MIT\r\npragma solidity ^0.8.6;\r\n\r\nimport \"./itoken.sol\";\r\nimport \"@openzeppelin/contracts/access/Ownable.sol\";\r\n\r\ncontract ArticleContract is Ownable {\r\n    uint256 public articlesCounter = 0;\r\n    address private tokenAddress;\r\n    mapping(uint256 => Article) public articles;\r\n\r\n    enum VoteState {\r\n        None,\r\n        Yes,\r\n        No\r\n    }\r\n\r\n    // Structs\r\n    struct Article {\r\n        uint256 id;\r\n        string title;\r\n        string description;\r\n        uint256 createdAt;\r\n        uint256 votesYes;\r\n        uint256 votesNo;\r\n        uint256 price;\r\n        uint256 expires;\r\n        bool ended;\r\n        mapping(address => VoteState) addressesWithVote;\r\n    }\r\n    // End of structs\r\n\r\n    // Modifiers\r\n    modifier articleExists(uint256 articleID) {\r\n        require(\r\n            articles[articleID].id == articleID,\r\n            \"Article with the requested ID does not exist!\"\r\n        );\r\n        _;\r\n    }\r\n\r\n    modifier hasNotVoted(uint256 articleID) {\r\n        require(\r\n            articles[articleID].addressesWithVote[msg.sender] == VoteState.None,\r\n            \"Article was already voted by you!\"\r\n        );\r\n        _;\r\n    }\r\n\r\n    modifier hasVoted(uint256 articleID) {\r\n        require(\r\n            articles[articleID].addressesWithVote[msg.sender] != VoteState.None,\r\n            \"Article was not voted by you!\"\r\n        );\r\n        _;\r\n    }\r\n    // End of modifier\r\n\r\n    // Events\r\n    event ArticleCreated(\r\n        uint256 id,\r\n        string title,\r\n        string description,\r\n        uint256 createdAt,\r\n        uint256 votesYes,\r\n        uint256 votesNo,\r\n        uint256 price,\r\n        uint256 expires\r\n    );\r\n\r\n    event ArticleUpdated(\r\n        uint256 id,\r\n        string title,\r\n        string description,\r\n        uint256 createdAt,\r\n        uint256 votesYes,\r\n        uint256 votesNo,\r\n        uint256 price,\r\n        uint256 expires,\r\n        bool ended\r\n    );\r\n\r\n    // End of events\r\n\r\n    constructor(address _tokenAddress) {\r\n        _transferOwnership(msg.sender);\r\n        tokenAddress = _tokenAddress;\r\n        createArticle(\"My first article\", \"Hello world\", 5, block.timestamp);\r\n    }\r\n\r\n    function createArticle(\r\n        string memory _title,\r\n        string memory _description,\r\n        uint256 _price,\r\n        uint256 _expires\r\n    ) public {\r\n        articlesCounter++;\r\n\r\n        Article storage _newArticle = articles[articlesCounter];\r\n\r\n        _newArticle.id = articlesCounter;\r\n        _newArticle.title = _title;\r\n        _newArticle.description = _description;\r\n        _newArticle.createdAt = block.timestamp;\r\n        _newArticle.votesYes = 0;\r\n        _newArticle.votesNo = 0;\r\n        _newArticle.price = _price;\r\n        _newArticle.expires = _expires;\r\n\r\n        emit ArticleCreated(\r\n            articlesCounter,\r\n            _title,\r\n            _description,\r\n            block.timestamp,\r\n            0,\r\n            0,\r\n            _price,\r\n            _expires\r\n        );\r\n    }\r\n\r\n    function addVoteToArticle(uint256 articleID, VoteState state)\r\n        public\r\n        articleExists(articleID)\r\n        hasNotVoted(articleID)\r\n    {\r\n        Article storage _articleToUpdate = articles[articleID];\r\n        if (state == VoteState.Yes)\r\n            _articleToUpdate.votesYes = _articleToUpdate.votesYes + 1;\r\n        else if (state == VoteState.No)\r\n            _articleToUpdate.votesNo = _articleToUpdate.votesNo + 1;\r\n\r\n        _articleToUpdate.addressesWithVote[msg.sender] = state;\r\n\r\n        emit ArticleUpdated(\r\n            _articleToUpdate.id,\r\n            _articleToUpdate.title,\r\n            _articleToUpdate.description,\r\n            _articleToUpdate.createdAt,\r\n            _articleToUpdate.votesYes,\r\n            _articleToUpdate.votesNo,\r\n            _articleToUpdate.price,\r\n            _articleToUpdate.expires,\r\n            _articleToUpdate.ended\r\n        );\r\n    }\r\n\r\n    function removeVoteToArticle(uint256 articleID)\r\n        public\r\n        articleExists(articleID)\r\n        hasVoted(articleID)\r\n    {\r\n        Article storage _articleToUpdate = articles[articleID];\r\n        VoteState state = _articleToUpdate.addressesWithVote[msg.sender];\r\n        if (state == VoteState.Yes)\r\n            _articleToUpdate.votesYes = _articleToUpdate.votesYes - 1;\r\n        else if (state == VoteState.No)\r\n            _articleToUpdate.votesNo = _articleToUpdate.votesNo - 1;\r\n        _articleToUpdate.addressesWithVote[msg.sender] = VoteState.None;\r\n\r\n        emit ArticleUpdated(\r\n            _articleToUpdate.id,\r\n            _articleToUpdate.title,\r\n            _articleToUpdate.description,\r\n            _articleToUpdate.createdAt,\r\n            _articleToUpdate.votesYes,\r\n            _articleToUpdate.votesNo,\r\n            _articleToUpdate.price,\r\n            _articleToUpdate.expires,\r\n            _articleToUpdate.ended\r\n        );\r\n    }\r\n\r\n    function endArticle(uint256 articleID)\r\n        public\r\n        onlyOwner\r\n        articleExists(articleID)\r\n    {\r\n        Article storage article = articles[articleID];\r\n        if (article.votesYes > article.votesNo) {\r\n            Token(tokenAddress).distribute(article.price);\r\n        } else {\r\n            delete article.id;\r\n        }\r\n        article.ended = true;\r\n        emit ArticleUpdated(\r\n            article.id,\r\n            article.title,\r\n            article.description,\r\n            article.createdAt,\r\n            article.votesYes,\r\n            article.votesNo,\r\n            article.price,\r\n            article.expires,\r\n            article.ended\r\n        );\r\n    }\r\n\r\n    function votedStateBySender(uint256 articleID)\r\n        public\r\n        view\r\n        articleExists(articleID)\r\n        returns (VoteState)\r\n    {\r\n        return articles[articleID].addressesWithVote[msg.sender];\r\n    }\r\n}\r\n",
  "sourcePath": "D:\\Workspace\\Ethereum\\carmen_task_vote\\contracts\\ArticleContract.sol",
  "compiler": {
    "name": "solc",
    "version": "0.8.6+commit.11564f7e.Emscripten.clang"
  },
  "schemaVersion": "3.4.7",
  "updatedAt": "2022-05-24T19:08:51.386Z",
  "networkType": "ethereum",
  "devdoc": {
    "kind": "dev",
    "methods": {
      "owner()": {
        "details": "Returns the address of the current owner."
      },
      "renounceOwnership()": {
        "details": "Leaves the contract without owner. It will not be possible to call `onlyOwner` functions anymore. Can only be called by the current owner. NOTE: Renouncing ownership will leave the contract without an owner, thereby removing any functionality that is only available to the owner."
      },
      "transferOwnership(address)": {
        "details": "Transfers ownership of the contract to a new account (`newOwner`). Can only be called by the current owner."
      }
    },
    "version": 1
  },
  "userdoc": {
    "kind": "user",
    "methods": {},
    "version": 1
  }
}