{
  "contractName": "ArticleContract",
  "abi": [
    {
      "inputs": [],
      "stateMutability": "nonpayable",
      "type": "constructor"
    },
    {
      "anonymous": false,
      "inputs": [
        {
          "indexed": false,
          "internalType": "uint256",
          "name": "id",
          "type": "uint256"
        },
        {
          "indexed": false,
          "internalType": "string",
          "name": "title",
          "type": "string"
        },
        {
          "indexed": false,
          "internalType": "string",
          "name": "description",
          "type": "string"
        },
        {
          "indexed": false,
          "internalType": "uint256",
          "name": "createdAt",
          "type": "uint256"
        },
        {
          "indexed": false,
          "internalType": "uint256",
          "name": "votes",
          "type": "uint256"
        },
        {
          "indexed": false,
          "internalType": "uint256",
          "name": "price",
          "type": "uint256"
        },
        {
          "indexed": false,
          "internalType": "uint256",
          "name": "expires",
          "type": "uint256"
        }
      ],
      "name": "ArticleCreated",
      "type": "event"
    },
    {
      "anonymous": false,
      "inputs": [
        {
          "indexed": false,
          "internalType": "uint256",
          "name": "id",
          "type": "uint256"
        },
        {
          "indexed": false,
          "internalType": "string",
          "name": "title",
          "type": "string"
        },
        {
          "indexed": false,
          "internalType": "string",
          "name": "description",
          "type": "string"
        },
        {
          "indexed": false,
          "internalType": "uint256",
          "name": "createdAt",
          "type": "uint256"
        },
        {
          "indexed": false,
          "internalType": "uint256",
          "name": "votes",
          "type": "uint256"
        },
        {
          "indexed": false,
          "internalType": "uint256",
          "name": "price",
          "type": "uint256"
        },
        {
          "indexed": false,
          "internalType": "uint256",
          "name": "expires",
          "type": "uint256"
        }
      ],
      "name": "ArticleUpdated",
      "type": "event"
    },
    {
      "inputs": [
        {
          "internalType": "uint256",
          "name": "",
          "type": "uint256"
        }
      ],
      "name": "articles",
      "outputs": [
        {
          "internalType": "uint256",
          "name": "id",
          "type": "uint256"
        },
        {
          "internalType": "string",
          "name": "title",
          "type": "string"
        },
        {
          "internalType": "string",
          "name": "description",
          "type": "string"
        },
        {
          "internalType": "uint256",
          "name": "createdAt",
          "type": "uint256"
        },
        {
          "internalType": "uint256",
          "name": "votes",
          "type": "uint256"
        },
        {
          "internalType": "uint256",
          "name": "price",
          "type": "uint256"
        },
        {
          "internalType": "uint256",
          "name": "expires",
          "type": "uint256"
        }
      ],
      "stateMutability": "view",
      "type": "function",
      "constant": true
    },
    {
      "inputs": [],
      "name": "articlesCounter",
      "outputs": [
        {
          "internalType": "uint256",
          "name": "",
          "type": "uint256"
        }
      ],
      "stateMutability": "view",
      "type": "function",
      "constant": true
    },
    {
      "inputs": [
        {
          "internalType": "string",
          "name": "_title",
          "type": "string"
        },
        {
          "internalType": "string",
          "name": "_description",
          "type": "string"
        },
        {
          "internalType": "uint256",
          "name": "_price",
          "type": "uint256"
        },
        {
          "internalType": "uint256",
          "name": "_expires",
          "type": "uint256"
        }
      ],
      "name": "createArticle",
      "outputs": [],
      "stateMutability": "nonpayable",
      "type": "function"
    },
    {
      "inputs": [
        {
          "internalType": "uint256",
          "name": "articleID",
          "type": "uint256"
        }
      ],
      "name": "addVoteToArticle",
      "outputs": [],
      "stateMutability": "nonpayable",
      "type": "function"
    },
    {
      "inputs": [
        {
          "internalType": "uint256",
          "name": "articleID",
          "type": "uint256"
        }
      ],
      "name": "removeVoteToArticle",
      "outputs": [],
      "stateMutability": "nonpayable",
      "type": "function"
    },
    {
      "inputs": [
        {
          "internalType": "uint256",
          "name": "articleID",
          "type": "uint256"
        }
      ],
      "name": "isVotedBySender",
      "outputs": [
        {
          "internalType": "bool",
          "name": "",
          "type": "bool"
        }
      ],
      "stateMutability": "view",
      "type": "function",
      "constant": true
    }
  ],
  "bytecode": "0x6080604052600080553480156200001557600080fd5b50620000956040518060400160405280601081526020017f4d792066697273742061727469636c65000000000000000000000000000000008152506040518060400160405280600b81526020017f48656c6c6f20776f726c640000000000000000000000000000000000000000008152506005426200009b60201b60201c565b62000482565b600060016000805481526020019081526020016000209050600054816000018190555084816001019080519060200190620000d892919062000181565b5083816002019080519060200190620000f392919062000181565b50428160030181905550600081600401819055508281600501819055508181600601819055506000808154809291906200012d90620003c5565b91905055507fe76bd0bb39e03cf1bbd9ceb9fc2a5c817ade619669e7d7f8c886e04f4399027c6000548686426000888860405162000172979695949392919062000294565b60405180910390a15050505050565b8280546200018f906200038f565b90600052602060002090601f016020900481019282620001b35760008555620001ff565b82601f10620001ce57805160ff1916838001178555620001ff565b82800160010185558215620001ff579182015b82811115620001fe578251825591602001919060010190620001e1565b5b5090506200020e919062000212565b5090565b5b808211156200022d57600081600090555060010162000213565b5090565b6200023c8162000345565b82525050565b60006200024f826200031f565b6200025b81856200032a565b93506200026d81856020860162000359565b620002788162000471565b840191505092915050565b6200028e816200033b565b82525050565b600060e082019050620002ab600083018a62000283565b8181036020830152620002bf818962000242565b90508181036040830152620002d5818862000242565b9050620002e6606083018762000283565b620002f5608083018662000231565b6200030460a083018562000283565b6200031360c083018462000283565b98975050505050505050565b600081519050919050565b600082825260208201905092915050565b6000819050919050565b600062000352826200033b565b9050919050565b60005b83811015620003795780820151818401526020810190506200035c565b8381111562000389576000848401525b50505050565b60006002820490506001821680620003a857607f821691505b60208210811415620003bf57620003be62000442565b5b50919050565b6000620003d2826200033b565b91507fffffffffffffffffffffffffffffffffffffffffffffffffffffffffffffffff82141562000408576200040762000413565b5b600182019050919050565b7f4e487b7100000000000000000000000000000000000000000000000000000000600052601160045260246000fd5b7f4e487b7100000000000000000000000000000000000000000000000000000000600052602260045260246000fd5b6000601f19601f8301169050919050565b61115280620004926000396000f3fe608060405234801561001057600080fd5b50600436106100625760003560e01c806306c4f01514610067578063285a2dd5146100835780633069e2551461009f5780636621404c146100cf578063959e1e2a146100ed578063edcfafe614610109575b600080fd5b610081600480360381019061007c919061093d565b61013f565b005b61009d600480360381019061009891906109dc565b61021d565b005b6100b960048036038101906100b491906109dc565b61040b565b6040516100c69190610b58565b60405180910390f35b6100d76104cf565b6040516100e49190610bd3565b60405180910390f35b610107600480360381019061010291906109dc565b6104d5565b005b610123600480360381019061011e91906109dc565b6106c3565b6040516101369796959493929190610c6b565b60405180910390f35b60006001600080548152602001908152602001600020905060005481600001819055508481600101908051906020019061017a929190610815565b5083816002019080519060200190610193929190610815565b50428160030181905550600081600401819055508281600501819055508181600601819055506000808154809291906101cb90610f43565b91905055507fe76bd0bb39e03cf1bbd9ceb9fc2a5c817ade619669e7d7f8c886e04f4399027c6000548686426000888860405161020e9796959493929190610bee565b60405180910390a15050505050565b8080600160008381526020019081526020016000206000015414610276576040517f08c379a000000000000000000000000000000000000000000000000000000000815260040161026d90610b93565b60405180910390fd5b81600015156001600083815260200190815260200160002060070160003373ffffffffffffffffffffffffffffffffffffffff1673ffffffffffffffffffffffffffffffffffffffff16815260200190815260200160002060009054906101000a900460ff1615151461031e576040517f08c379a000000000000000000000000000000000000000000000000000000000815260040161031590610bb3565b60405180910390fd5b6000600160008581526020019081526020016000209050600181600401546103469190610dec565b816004018190555060018160070160003373ffffffffffffffffffffffffffffffffffffffff1673ffffffffffffffffffffffffffffffffffffffff16815260200190815260200160002060006101000a81548160ff0219169083151502179055507f74a4b5168ba7ac4877e096d1c1e3b6342b921bb1e86e53d300e3cb3a215453568160000154826001018360020184600301548560040154866005015487600601546040516103fd9796959493929190610ce8565b60405180910390a150505050565b60008180600160008381526020019081526020016000206000015414610466576040517f08c379a000000000000000000000000000000000000000000000000000000000815260040161045d90610b93565b60405180910390fd5b6001600084815260200190815260200160002060070160003373ffffffffffffffffffffffffffffffffffffffff1673ffffffffffffffffffffffffffffffffffffffff16815260200190815260200160002060009054906101000a900460ff16915050919050565b60005481565b808060016000838152602001908152602001600020600001541461052e576040517f08c379a000000000000000000000000000000000000000000000000000000000815260040161052590610b93565b60405180910390fd5b81600115156001600083815260200190815260200160002060070160003373ffffffffffffffffffffffffffffffffffffffff1673ffffffffffffffffffffffffffffffffffffffff16815260200190815260200160002060009054906101000a900460ff161515146105d6576040517f08c379a00000000000000000000000000000000000000000000000000000000081526004016105cd90610b73565b60405180910390fd5b6000600160008581526020019081526020016000209050600181600401546105fe9190610e42565b816004018190555060008160070160003373ffffffffffffffffffffffffffffffffffffffff1673ffffffffffffffffffffffffffffffffffffffff16815260200190815260200160002060006101000a81548160ff0219169083151502179055507f74a4b5168ba7ac4877e096d1c1e3b6342b921bb1e86e53d300e3cb3a215453568160000154826001018360020184600301548560040154866005015487600601546040516106b59796959493929190610ce8565b60405180910390a150505050565b60016020528060005260406000206000915090508060000154908060010180546106ec90610ee0565b80601f016020809104026020016040519081016040528092919081815260200182805461071890610ee0565b80156107655780601f1061073a57610100808354040283529160200191610765565b820191906000526020600020905b81548152906001019060200180831161074857829003601f168201915b50505050509080600201805461077a90610ee0565b80601f01602080910402602001604051908101604052809291908181526020018280546107a690610ee0565b80156107f35780601f106107c8576101008083540402835291602001916107f3565b820191906000526020600020905b8154815290600101906020018083116107d657829003601f168201915b5050505050908060030154908060040154908060050154908060060154905087565b82805461082190610ee0565b90600052602060002090601f016020900481019282610843576000855561088a565b82601f1061085c57805160ff191683800117855561088a565b8280016001018555821561088a579182015b8281111561088957825182559160200191906001019061086e565b5b509050610897919061089b565b5090565b5b808211156108b457600081600090555060010161089c565b5090565b60006108cb6108c684610d8a565b610d65565b9050828152602081018484840111156108e7576108e661101e565b5b6108f2848285610e9e565b509392505050565b600082601f83011261090f5761090e611019565b5b813561091f8482602086016108b8565b91505092915050565b60008135905061093781611105565b92915050565b6000806000806080858703121561095757610956611028565b5b600085013567ffffffffffffffff81111561097557610974611023565b5b610981878288016108fa565b945050602085013567ffffffffffffffff8111156109a2576109a1611023565b5b6109ae878288016108fa565b93505060406109bf87828801610928565b92505060606109d087828801610928565b91505092959194509250565b6000602082840312156109f2576109f1611028565b5b6000610a0084828501610928565b91505092915050565b610a1281610e76565b82525050565b610a2181610e8c565b82525050565b6000610a3282610dd0565b610a3c8185610ddb565b9350610a4c818560208601610ead565b610a558161102d565b840191505092915050565b60008154610a6d81610ee0565b610a778186610ddb565b94506001821660008114610a925760018114610aa457610ad7565b60ff1983168652602086019350610ad7565b610aad85610dbb565b60005b83811015610acf57815481890152600182019150602081019050610ab0565b808801955050505b50505092915050565b6000610aed601d83610ddb565b9150610af88261103e565b602082019050919050565b6000610b10602d83610ddb565b9150610b1b82611067565b604082019050919050565b6000610b33602183610ddb565b9150610b3e826110b6565b604082019050919050565b610b5281610e82565b82525050565b6000602082019050610b6d6000830184610a09565b92915050565b60006020820190508181036000830152610b8c81610ae0565b9050919050565b60006020820190508181036000830152610bac81610b03565b9050919050565b60006020820190508181036000830152610bcc81610b26565b9050919050565b6000602082019050610be86000830184610b49565b92915050565b600060e082019050610c03600083018a610b49565b8181036020830152610c158189610a27565b90508181036040830152610c298188610a27565b9050610c386060830187610b49565b610c456080830186610a18565b610c5260a0830185610b49565b610c5f60c0830184610b49565b98975050505050505050565b600060e082019050610c80600083018a610b49565b8181036020830152610c928189610a27565b90508181036040830152610ca68188610a27565b9050610cb56060830187610b49565b610cc26080830186610b49565b610ccf60a0830185610b49565b610cdc60c0830184610b49565b98975050505050505050565b600060e082019050610cfd600083018a610b49565b8181036020830152610d0f8189610a60565b90508181036040830152610d238188610a60565b9050610d326060830187610b49565b610d3f6080830186610b49565b610d4c60a0830185610b49565b610d5960c0830184610b49565b98975050505050505050565b6000610d6f610d80565b9050610d7b8282610f12565b919050565b6000604051905090565b600067ffffffffffffffff821115610da557610da4610fea565b5b610dae8261102d565b9050602081019050919050565b60008190508160005260206000209050919050565b600081519050919050565b600082825260208201905092915050565b6000610df782610e82565b9150610e0283610e82565b9250827fffffffffffffffffffffffffffffffffffffffffffffffffffffffffffffffff03821115610e3757610e36610f8c565b5b828201905092915050565b6000610e4d82610e82565b9150610e5883610e82565b925082821015610e6b57610e6a610f8c565b5b828203905092915050565b60008115159050919050565b6000819050919050565b6000610e9782610e82565b9050919050565b82818337600083830152505050565b60005b83811015610ecb578082015181840152602081019050610eb0565b83811115610eda576000848401525b50505050565b60006002820490506001821680610ef857607f821691505b60208210811415610f0c57610f0b610fbb565b5b50919050565b610f1b8261102d565b810181811067ffffffffffffffff82111715610f3a57610f39610fea565b5b80604052505050565b6000610f4e82610e82565b91507fffffffffffffffffffffffffffffffffffffffffffffffffffffffffffffffff821415610f8157610f80610f8c565b5b600182019050919050565b7f4e487b7100000000000000000000000000000000000000000000000000000000600052601160045260246000fd5b7f4e487b7100000000000000000000000000000000000000000000000000000000600052602260045260246000fd5b7f4e487b7100000000000000000000000000000000000000000000000000000000600052604160045260246000fd5b600080fd5b600080fd5b600080fd5b600080fd5b6000601f19601f8301169050919050565b7f41727469636c6520776173206e6f7420766f74656420627920796f7521000000600082015250565b7f41727469636c652077697468207468652072657175657374656420494420646f60008201527f6573206e6f742065786973742100000000000000000000000000000000000000602082015250565b7f41727469636c652077617320616c726561647920766f74656420627920796f7560008201527f2100000000000000000000000000000000000000000000000000000000000000602082015250565b61110e81610e82565b811461111957600080fd5b5056fea264697066735822122056a274181e6b35a502286e17bcc14d3b9d1b5b343bea26d023f94ec6ea97576c64736f6c63430008060033",
  "immutableReferences": {},
  "source": "// SPDX-License-Identifier: MIT\r\npragma solidity ^0.8.6;\r\n\r\nimport \"./itoken.sol\";\r\n\r\ncontract ArticleContract {\r\n    uint256 public articlesCounter = 0;\r\n    mapping(uint256 => Article) public articles;\r\n\r\n    // Structs\r\n    struct Article {\r\n        uint256 id;\r\n        string title;\r\n        string description;\r\n        uint256 createdAt;\r\n        uint256 votes;\r\n        uint256 price;\r\n        uint256 expires;\r\n        mapping(address => bool) addressesWithVote;\r\n    }\r\n    // End of structs\r\n\r\n    // Modifiers\r\n    modifier articleExists(uint256 articleID) {\r\n        require(\r\n            articles[articleID].id == articleID,\r\n            \"Article with the requested ID does not exist!\"\r\n        );\r\n        _;\r\n    }\r\n\r\n    modifier hasNotVoted(uint256 articleID) {\r\n        require(\r\n            articles[articleID].addressesWithVote[msg.sender] == false,\r\n            \"Article was already voted by you!\"\r\n        );\r\n        _;\r\n    }\r\n\r\n    modifier hasVoted(uint256 articleID) {\r\n        require(\r\n            articles[articleID].addressesWithVote[msg.sender] == true,\r\n            \"Article was not voted by you!\"\r\n        );\r\n        _;\r\n    }\r\n    // End of modifier\r\n\r\n    // Events\r\n    event ArticleCreated(\r\n        uint256 id,\r\n        string title,\r\n        string description,\r\n        uint256 createdAt,\r\n        uint256 votes,\r\n        uint256 price,\r\n        uint256 expires\r\n    );\r\n\r\n    event ArticleUpdated(\r\n        uint256 id,\r\n        string title,\r\n        string description,\r\n        uint256 createdAt,\r\n        uint256 votes,\r\n        uint256 price,\r\n        uint256 expires\r\n    );\r\n\r\n    // End of events\r\n\r\n    constructor() {\r\n        createArticle(\"My first article\", \"Hello world\", 5, block.timestamp);\r\n    }\r\n\r\n    function createArticle(\r\n        string memory _title,\r\n        string memory _description,\r\n        uint256 _price,\r\n        uint256 _expires\r\n    ) public {\r\n        Article storage _newArticle = articles[articlesCounter];\r\n\r\n        _newArticle.id = articlesCounter;\r\n        _newArticle.title = _title;\r\n        _newArticle.description = _description;\r\n        _newArticle.createdAt = block.timestamp;\r\n        _newArticle.votes = 0;\r\n        _newArticle.price = _price;\r\n        _newArticle.expires = _expires;\r\n\r\n        articlesCounter++;\r\n\r\n        emit ArticleCreated(\r\n            articlesCounter,\r\n            _title,\r\n            _description,\r\n            block.timestamp,\r\n            0,\r\n            _price,\r\n            _expires\r\n        );\r\n    }\r\n\r\n    function addVoteToArticle(uint256 articleID)\r\n        public\r\n        articleExists(articleID)\r\n        hasNotVoted(articleID)\r\n    {\r\n        Article storage _articleToUpdate = articles[articleID];\r\n        _articleToUpdate.votes = _articleToUpdate.votes + 1;\r\n        _articleToUpdate.addressesWithVote[msg.sender] = true;\r\n\r\n        emit ArticleUpdated(\r\n            _articleToUpdate.id,\r\n            _articleToUpdate.title,\r\n            _articleToUpdate.description,\r\n            _articleToUpdate.createdAt,\r\n            _articleToUpdate.votes,\r\n            _articleToUpdate.price,\r\n            _articleToUpdate.expires\r\n        );\r\n    }\r\n\r\n    function removeVoteToArticle(uint256 articleID)\r\n        public\r\n        articleExists(articleID)\r\n        hasVoted(articleID)\r\n    {\r\n        Article storage _articleToUpdate = articles[articleID];\r\n        _articleToUpdate.votes = _articleToUpdate.votes - 1;\r\n        _articleToUpdate.addressesWithVote[msg.sender] = false;\r\n\r\n        emit ArticleUpdated(\r\n            _articleToUpdate.id,\r\n            _articleToUpdate.title,\r\n            _articleToUpdate.description,\r\n            _articleToUpdate.createdAt,\r\n            _articleToUpdate.votes,\r\n            _articleToUpdate.price,\r\n            _articleToUpdate.expires\r\n        );\r\n    }\r\n\r\n    function isVotedBySender(uint256 articleID)\r\n        public\r\n        view\r\n        articleExists(articleID)\r\n        returns (bool)\r\n    {\r\n        return articles[articleID].addressesWithVote[msg.sender];\r\n    }\r\n}\r\n",
  "sourcePath": "D:\\Workspace\\Ethereum\\tasksVotar\\contracts\\ArticleContract.sol",
  "compiler": {
    "name": "solc",
    "version": "0.8.6+commit.11564f7e.Emscripten.clang"
  },
  "schemaVersion": "3.4.7",
  "updatedAt": "2022-05-16T09:35:25.846Z",
  "networkType": "ethereum",
  "devdoc": {
    "kind": "dev",
    "methods": {},
    "version": 1
  },
  "userdoc": {
    "kind": "user",
    "methods": {},
    "version": 1
  }
}