{
  "contractName": "ArticleContract",
  "abi": [
    {
      "inputs": [
        {
          "internalType": "address",
          "name": "_tokenAddress",
          "type": "address"
        }
      ],
      "stateMutability": "nonpayable",
      "type": "constructor"
    },
    {
      "anonymous": false,
      "inputs": [
        {
          "indexed": false,
          "internalType": "uint256",
          "name": "id",
          "type": "uint256"
        },
        {
          "indexed": false,
          "internalType": "string",
          "name": "title",
          "type": "string"
        },
        {
          "indexed": false,
          "internalType": "string",
          "name": "description",
          "type": "string"
        },
        {
          "indexed": false,
          "internalType": "uint256",
          "name": "createdAt",
          "type": "uint256"
        },
        {
          "indexed": false,
          "internalType": "uint256",
          "name": "votesYes",
          "type": "uint256"
        },
        {
          "indexed": false,
          "internalType": "uint256",
          "name": "votesNo",
          "type": "uint256"
        },
        {
          "indexed": false,
          "internalType": "uint256",
          "name": "price",
          "type": "uint256"
        },
        {
          "indexed": false,
          "internalType": "uint256",
          "name": "expires",
          "type": "uint256"
        }
      ],
      "name": "ArticleCreated",
      "type": "event"
    },
    {
      "anonymous": false,
      "inputs": [
        {
          "indexed": false,
          "internalType": "uint256",
          "name": "id",
          "type": "uint256"
        },
        {
          "indexed": false,
          "internalType": "string",
          "name": "title",
          "type": "string"
        },
        {
          "indexed": false,
          "internalType": "string",
          "name": "description",
          "type": "string"
        },
        {
          "indexed": false,
          "internalType": "uint256",
          "name": "createdAt",
          "type": "uint256"
        },
        {
          "indexed": false,
          "internalType": "uint256",
          "name": "votesYes",
          "type": "uint256"
        },
        {
          "indexed": false,
          "internalType": "uint256",
          "name": "votesNo",
          "type": "uint256"
        },
        {
          "indexed": false,
          "internalType": "uint256",
          "name": "price",
          "type": "uint256"
        },
        {
          "indexed": false,
          "internalType": "uint256",
          "name": "expires",
          "type": "uint256"
        }
      ],
      "name": "ArticleUpdated",
      "type": "event"
    },
    {
      "inputs": [
        {
          "internalType": "uint256",
          "name": "",
          "type": "uint256"
        }
      ],
      "name": "articles",
      "outputs": [
        {
          "internalType": "uint256",
          "name": "id",
          "type": "uint256"
        },
        {
          "internalType": "string",
          "name": "title",
          "type": "string"
        },
        {
          "internalType": "string",
          "name": "description",
          "type": "string"
        },
        {
          "internalType": "uint256",
          "name": "createdAt",
          "type": "uint256"
        },
        {
          "internalType": "uint256",
          "name": "votesYes",
          "type": "uint256"
        },
        {
          "internalType": "uint256",
          "name": "votesNo",
          "type": "uint256"
        },
        {
          "internalType": "uint256",
          "name": "price",
          "type": "uint256"
        },
        {
          "internalType": "uint256",
          "name": "expires",
          "type": "uint256"
        }
      ],
      "stateMutability": "view",
      "type": "function",
      "constant": true
    },
    {
      "inputs": [],
      "name": "articlesCounter",
      "outputs": [
        {
          "internalType": "uint256",
          "name": "",
          "type": "uint256"
        }
      ],
      "stateMutability": "view",
      "type": "function",
      "constant": true
    },
    {
      "inputs": [
        {
          "internalType": "string",
          "name": "_title",
          "type": "string"
        },
        {
          "internalType": "string",
          "name": "_description",
          "type": "string"
        },
        {
          "internalType": "uint256",
          "name": "_price",
          "type": "uint256"
        },
        {
          "internalType": "uint256",
          "name": "_expires",
          "type": "uint256"
        }
      ],
      "name": "createArticle",
      "outputs": [],
      "stateMutability": "nonpayable",
      "type": "function"
    },
    {
      "inputs": [
        {
          "internalType": "uint256",
          "name": "articleID",
          "type": "uint256"
        },
        {
          "internalType": "enum ArticleContract.VoteState",
          "name": "state",
          "type": "uint8"
        }
      ],
      "name": "addVoteToArticle",
      "outputs": [],
      "stateMutability": "nonpayable",
      "type": "function"
    },
    {
      "inputs": [
        {
          "internalType": "uint256",
          "name": "articleID",
          "type": "uint256"
        }
      ],
      "name": "removeVoteToArticle",
      "outputs": [],
      "stateMutability": "nonpayable",
      "type": "function"
    },
    {
      "inputs": [
        {
          "internalType": "uint256",
          "name": "articleID",
          "type": "uint256"
        }
      ],
      "name": "endArticle",
      "outputs": [],
      "stateMutability": "nonpayable",
      "type": "function"
    },
    {
      "inputs": [
        {
          "internalType": "uint256",
          "name": "articleID",
          "type": "uint256"
        }
      ],
      "name": "votedStateBySender",
      "outputs": [
        {
          "internalType": "enum ArticleContract.VoteState",
          "name": "",
          "type": "uint8"
        }
      ],
      "stateMutability": "view",
      "type": "function",
      "constant": true
    }
  ],
  "bytecode": "0x6080604052600080553480156200001557600080fd5b5060405162001b0e38038062001b0e83398181016040528101906200003b9190620002bb565b80600160006101000a81548173ffffffffffffffffffffffffffffffffffffffff021916908373ffffffffffffffffffffffffffffffffffffffff160217905550620000fb6040518060400160405280601081526020017f4d792066697273742061727469636c65000000000000000000000000000000008152506040518060400160405280600b81526020017f48656c6c6f20776f726c640000000000000000000000000000000000000000008152506005426200010260201b60201c565b50620005a2565b6000808154809291906200011690620004c6565b919050555060006002600080548152602001908152602001600020905060005481600001819055508481600101908051906020019062000158929190620001f4565b508381600201908051906020019062000173929190620001f4565b5042816003018190555060008160040181905550600081600501819055508281600601819055508181600701819055507f843bf2cb05b6b6ddca24e67550462e05a642d4368ac6036938cb9eb6b46b80106000548686426000808989604051620001e598979695949392919062000350565b60405180910390a15050505050565b828054620002029062000490565b90600052602060002090601f01602090048101928262000226576000855562000272565b82601f106200024157805160ff191683800117855562000272565b8280016001018555821562000272579182015b828111156200027157825182559160200191906001019062000254565b5b50905062000281919062000285565b5090565b5b80821115620002a057600081600090555060010162000286565b5090565b600081519050620002b58162000588565b92915050565b600060208284031215620002d457620002d362000572565b5b6000620002e484828501620002a4565b91505092915050565b620002f88162000446565b82525050565b60006200030b82620003ec565b620003178185620003f7565b9350620003298185602086016200045a565b620003348162000577565b840191505092915050565b6200034a816200043c565b82525050565b60006101008201905062000368600083018b6200033f565b81810360208301526200037c818a620002fe565b90508181036040830152620003928189620002fe565b9050620003a360608301886200033f565b620003b26080830187620002ed565b620003c160a0830186620002ed565b620003d060c08301856200033f565b620003df60e08301846200033f565b9998505050505050505050565b600081519050919050565b600082825260208201905092915050565b600062000415826200041c565b9050919050565b600073ffffffffffffffffffffffffffffffffffffffff82169050919050565b6000819050919050565b600062000453826200043c565b9050919050565b60005b838110156200047a5780820151818401526020810190506200045d565b838111156200048a576000848401525b50505050565b60006002820490506001821680620004a957607f821691505b60208210811415620004c057620004bf62000543565b5b50919050565b6000620004d3826200043c565b91507fffffffffffffffffffffffffffffffffffffffffffffffffffffffffffffffff82141562000509576200050862000514565b5b600182019050919050565b7f4e487b7100000000000000000000000000000000000000000000000000000000600052601160045260246000fd5b7f4e487b7100000000000000000000000000000000000000000000000000000000600052602260045260246000fd5b600080fd5b6000601f19601f8301169050919050565b620005938162000408565b81146200059f57600080fd5b50565b61155c80620005b26000396000f3fe608060405234801561001057600080fd5b506004361061007d5760003560e01c806385aa041a1161005b57806385aa041a146100d8578063959e1e2a14610108578063cfb569ee14610124578063edcfafe6146101405761007d565b806306c4f015146100825780636621404c1461009e5780637449b298146100bc575b600080fd5b61009c60048036038101906100979190610c6e565b610177565b005b6100a6610261565b6040516100b39190610f44565b60405180910390f35b6100d660048036038101906100d19190610d0d565b610267565b005b6100f260048036038101906100ed9190610d0d565b610386565b6040516100ff9190610ec9565b60405180910390f35b610122600480360381019061011d9190610d0d565b61044a565b005b61013e60048036038101906101399190610d3a565b61073c565b005b61015a60048036038101906101559190610d0d565b6109d9565b60405161016e989796959493929190610feb565b60405180910390f35b600080815480929190610189906112fa565b91905055506000600260008054815260200190815260200160002090506000548160000181905550848160010190805190602001906101c9929190610b31565b50838160020190805190602001906101e2929190610b31565b5042816003018190555060008160040181905550600081600501819055508281600601819055508181600701819055507f843bf2cb05b6b6ddca24e67550462e05a642d4368ac6036938cb9eb6b46b80106000548686426000808989604051610252989796959493929190610f5f565b60405180910390a15050505050565b60005481565b80806002600083815260200190815260200160002060000154146102c0576040517f08c379a00000000000000000000000000000000000000000000000000000000081526004016102b790610f04565b60405180910390fd5b600060026000848152602001908152602001600020905080600501548160040154111561037957600160009054906101000a900473ffffffffffffffffffffffffffffffffffffffff1673ffffffffffffffffffffffffffffffffffffffff166391c05b0b82600601546040518263ffffffff1660e01b81526004016103469190610f44565b600060405180830381600087803b15801561036057600080fd5b505af1158015610374573d6000803e3d6000fd5b505050505b8060000160009055505050565b600081806002600083815260200190815260200160002060000154146103e1576040517f08c379a00000000000000000000000000000000000000000000000000000000081526004016103d890610f04565b60405180910390fd5b6002600084815260200190815260200160002060080160003373ffffffffffffffffffffffffffffffffffffffff1673ffffffffffffffffffffffffffffffffffffffff16815260200190815260200160002060009054906101000a900460ff16915050919050565b80806002600083815260200190815260200160002060000154146104a3576040517f08c379a000000000000000000000000000000000000000000000000000000000815260040161049a90610f04565b60405180910390fd5b81600060028111156104b8576104b7611372565b5b6002600083815260200190815260200160002060080160003373ffffffffffffffffffffffffffffffffffffffff1673ffffffffffffffffffffffffffffffffffffffff16815260200190815260200160002060009054906101000a900460ff16600281111561052b5761052a611372565b5b141561056c576040517f08c379a000000000000000000000000000000000000000000000000000000000815260040161056390610ee4565b60405180910390fd5b600060026000858152602001908152602001600020905060008160080160003373ffffffffffffffffffffffffffffffffffffffff1673ffffffffffffffffffffffffffffffffffffffff16815260200190815260200160002060009054906101000a900460ff169050600160028111156105ea576105e9611372565b5b8160028111156105fd576105fc611372565b5b1415610621576001826004015461061491906111e0565b8260040181905550610668565b60028081111561063457610633611372565b5b81600281111561064757610646611372565b5b1415610667576001826005015461065e91906111e0565b82600501819055505b5b60008260080160003373ffffffffffffffffffffffffffffffffffffffff1673ffffffffffffffffffffffffffffffffffffffff16815260200190815260200160002060006101000a81548160ff021916908360028111156106cd576106cc611372565b5b02179055507fdb3ba936aa315f694b5203477bfcacdac0f04bca11b5f31e568c3602a93340d5826000015483600101846002018560030154866004015487600501548860060154896007015460405161072d989796959493929190611077565b60405180910390a15050505050565b8180600260008381526020019081526020016000206000015414610795576040517f08c379a000000000000000000000000000000000000000000000000000000000815260040161078c90610f04565b60405180910390fd5b82600060028111156107aa576107a9611372565b5b6002600083815260200190815260200160002060080160003373ffffffffffffffffffffffffffffffffffffffff1673ffffffffffffffffffffffffffffffffffffffff16815260200190815260200160002060009054906101000a900460ff16600281111561081d5761081c611372565b5b1461085d576040517f08c379a000000000000000000000000000000000000000000000000000000000815260040161085490610f24565b60405180910390fd5b60006002600086815260200190815260200160002090506001600281111561088857610887611372565b5b84600281111561089b5761089a611372565b5b14156108bf57600181600401546108b2919061118a565b8160040181905550610906565b6002808111156108d2576108d1611372565b5b8460028111156108e5576108e4611372565b5b141561090557600181600501546108fc919061118a565b81600501819055505b5b838160080160003373ffffffffffffffffffffffffffffffffffffffff1673ffffffffffffffffffffffffffffffffffffffff16815260200190815260200160002060006101000a81548160ff0219169083600281111561096a57610969611372565b5b02179055507fdb3ba936aa315f694b5203477bfcacdac0f04bca11b5f31e568c3602a93340d581600001548260010183600201846003015485600401548660050154876006015488600701546040516109ca989796959493929190611077565b60405180910390a15050505050565b6002602052806000526040600020600091509050806000015490806001018054610a0290611297565b80601f0160208091040260200160405190810160405280929190818152602001828054610a2e90611297565b8015610a7b5780601f10610a5057610100808354040283529160200191610a7b565b820191906000526020600020905b815481529060010190602001808311610a5e57829003601f168201915b505050505090806002018054610a9090611297565b80601f0160208091040260200160405190810160405280929190818152602001828054610abc90611297565b8015610b095780601f10610ade57610100808354040283529160200191610b09565b820191906000526020600020905b815481529060010190602001808311610aec57829003601f168201915b5050505050908060030154908060040154908060050154908060060154908060070154905088565b828054610b3d90611297565b90600052602060002090601f016020900481019282610b5f5760008555610ba6565b82601f10610b7857805160ff1916838001178555610ba6565b82800160010185558215610ba6579182015b82811115610ba5578251825591602001919060010190610b8a565b5b509050610bb39190610bb7565b5090565b5b80821115610bd0576000816000905550600101610bb8565b5090565b6000610be7610be284611128565b611103565b905082815260208101848484011115610c0357610c02611404565b5b610c0e848285611255565b509392505050565b600081359050610c25816114ff565b92915050565b600082601f830112610c4057610c3f6113ff565b5b8135610c50848260208601610bd4565b91505092915050565b600081359050610c688161150f565b92915050565b60008060008060808587031215610c8857610c8761140e565b5b600085013567ffffffffffffffff811115610ca657610ca5611409565b5b610cb287828801610c2b565b945050602085013567ffffffffffffffff811115610cd357610cd2611409565b5b610cdf87828801610c2b565b9350506040610cf087828801610c59565b9250506060610d0187828801610c59565b91505092959194509250565b600060208284031215610d2357610d2261140e565b5b6000610d3184828501610c59565b91505092915050565b60008060408385031215610d5157610d5061140e565b5b6000610d5f85828601610c59565b9250506020610d7085828601610c16565b9150509250929050565b610d8381611231565b82525050565b610d9281611243565b82525050565b6000610da38261116e565b610dad8185611179565b9350610dbd818560208601611264565b610dc681611413565b840191505092915050565b60008154610dde81611297565b610de88186611179565b94506001821660008114610e035760018114610e1557610e48565b60ff1983168652602086019350610e48565b610e1e85611159565b60005b83811015610e4057815481890152600182019150602081019050610e21565b808801955050505b50505092915050565b6000610e5e601d83611179565b9150610e6982611424565b602082019050919050565b6000610e81602d83611179565b9150610e8c8261144d565b604082019050919050565b6000610ea4602183611179565b9150610eaf8261149c565b604082019050919050565b610ec381611227565b82525050565b6000602082019050610ede6000830184610d7a565b92915050565b60006020820190508181036000830152610efd81610e51565b9050919050565b60006020820190508181036000830152610f1d81610e74565b9050919050565b60006020820190508181036000830152610f3d81610e97565b9050919050565b6000602082019050610f596000830184610eba565b92915050565b600061010082019050610f75600083018b610eba565b8181036020830152610f87818a610d98565b90508181036040830152610f9b8189610d98565b9050610faa6060830188610eba565b610fb76080830187610d89565b610fc460a0830186610d89565b610fd160c0830185610eba565b610fde60e0830184610eba565b9998505050505050505050565b600061010082019050611001600083018b610eba565b8181036020830152611013818a610d98565b905081810360408301526110278189610d98565b90506110366060830188610eba565b6110436080830187610eba565b61105060a0830186610eba565b61105d60c0830185610eba565b61106a60e0830184610eba565b9998505050505050505050565b60006101008201905061108d600083018b610eba565b818103602083015261109f818a610dd1565b905081810360408301526110b38189610dd1565b90506110c26060830188610eba565b6110cf6080830187610eba565b6110dc60a0830186610eba565b6110e960c0830185610eba565b6110f660e0830184610eba565b9998505050505050505050565b600061110d61111e565b905061111982826112c9565b919050565b6000604051905090565b600067ffffffffffffffff821115611143576111426113d0565b5b61114c82611413565b9050602081019050919050565b60008190508160005260206000209050919050565b600081519050919050565b600082825260208201905092915050565b600061119582611227565b91506111a083611227565b9250827fffffffffffffffffffffffffffffffffffffffffffffffffffffffffffffffff038211156111d5576111d4611343565b5b828201905092915050565b60006111eb82611227565b91506111f683611227565b92508282101561120957611208611343565b5b828203905092915050565b6000819050611222826114eb565b919050565b6000819050919050565b600061123c82611214565b9050919050565b600061124e82611227565b9050919050565b82818337600083830152505050565b60005b83811015611282578082015181840152602081019050611267565b83811115611291576000848401525b50505050565b600060028204905060018216806112af57607f821691505b602082108114156112c3576112c26113a1565b5b50919050565b6112d282611413565b810181811067ffffffffffffffff821117156112f1576112f06113d0565b5b80604052505050565b600061130582611227565b91507fffffffffffffffffffffffffffffffffffffffffffffffffffffffffffffffff82141561133857611337611343565b5b600182019050919050565b7f4e487b7100000000000000000000000000000000000000000000000000000000600052601160045260246000fd5b7f4e487b7100000000000000000000000000000000000000000000000000000000600052602160045260246000fd5b7f4e487b7100000000000000000000000000000000000000000000000000000000600052602260045260246000fd5b7f4e487b7100000000000000000000000000000000000000000000000000000000600052604160045260246000fd5b600080fd5b600080fd5b600080fd5b600080fd5b6000601f19601f8301169050919050565b7f41727469636c6520776173206e6f7420766f74656420627920796f7521000000600082015250565b7f41727469636c652077697468207468652072657175657374656420494420646f60008201527f6573206e6f742065786973742100000000000000000000000000000000000000602082015250565b7f41727469636c652077617320616c726561647920766f74656420627920796f7560008201527f2100000000000000000000000000000000000000000000000000000000000000602082015250565b600381106114fc576114fb611372565b5b50565b6003811061150c57600080fd5b50565b61151881611227565b811461152357600080fd5b5056fea26469706673582212206b3473571702a4d2ac1ee1beae9a5972e791ad1796357ca053579164a5f08d7064736f6c63430008060033",
  "immutableReferences": {},
  "source": "// SPDX-License-Identifier: MIT\r\npragma solidity ^0.8.6;\r\n\r\nimport \"./itoken.sol\";\r\n\r\ncontract ArticleContract {\r\n    uint256 public articlesCounter = 0;\r\n    address private tokenAddress;\r\n    mapping(uint256 => Article) public articles;\r\n\r\n    enum VoteState {\r\n        None,\r\n        Yes,\r\n        No\r\n    }\r\n\r\n    // Structs\r\n    struct Article {\r\n        uint256 id;\r\n        string title;\r\n        string description;\r\n        uint256 createdAt;\r\n        uint256 votesYes;\r\n        uint256 votesNo;\r\n        uint256 price;\r\n        uint256 expires;\r\n        mapping(address => VoteState) addressesWithVote;\r\n    }\r\n    // End of structs\r\n\r\n    // Modifiers\r\n    modifier articleExists(uint256 articleID) {\r\n        require(\r\n            articles[articleID].id == articleID,\r\n            \"Article with the requested ID does not exist!\"\r\n        );\r\n        _;\r\n    }\r\n\r\n    modifier hasNotVoted(uint256 articleID) {\r\n        require(\r\n            articles[articleID].addressesWithVote[msg.sender] == VoteState.None,\r\n            \"Article was already voted by you!\"\r\n        );\r\n        _;\r\n    }\r\n\r\n    modifier hasVoted(uint256 articleID) {\r\n        require(\r\n            articles[articleID].addressesWithVote[msg.sender] != VoteState.None,\r\n            \"Article was not voted by you!\"\r\n        );\r\n        _;\r\n    }\r\n    // End of modifier\r\n\r\n    // Events\r\n    event ArticleCreated(\r\n        uint256 id,\r\n        string title,\r\n        string description,\r\n        uint256 createdAt,\r\n        uint256 votesYes,\r\n        uint256 votesNo,\r\n        uint256 price,\r\n        uint256 expires\r\n    );\r\n\r\n    event ArticleUpdated(\r\n        uint256 id,\r\n        string title,\r\n        string description,\r\n        uint256 createdAt,\r\n        uint256 votesYes,\r\n        uint256 votesNo,\r\n        uint256 price,\r\n        uint256 expires\r\n    );\r\n\r\n    // End of events\r\n\r\n    constructor(address _tokenAddress) {\r\n        tokenAddress = _tokenAddress;\r\n        createArticle(\"My first article\", \"Hello world\", 5, block.timestamp);\r\n    }\r\n\r\n    function createArticle(\r\n        string memory _title,\r\n        string memory _description,\r\n        uint256 _price,\r\n        uint256 _expires\r\n    ) public {\r\n        articlesCounter++;\r\n\r\n        Article storage _newArticle = articles[articlesCounter];\r\n\r\n        _newArticle.id = articlesCounter;\r\n        _newArticle.title = _title;\r\n        _newArticle.description = _description;\r\n        _newArticle.createdAt = block.timestamp;\r\n        _newArticle.votesYes = 0;\r\n        _newArticle.votesNo = 0;\r\n        _newArticle.price = _price;\r\n        _newArticle.expires = _expires;\r\n\r\n        emit ArticleCreated(\r\n            articlesCounter,\r\n            _title,\r\n            _description,\r\n            block.timestamp,\r\n            0,\r\n            0,\r\n            _price,\r\n            _expires\r\n        );\r\n    }\r\n\r\n    function addVoteToArticle(uint256 articleID, VoteState state)\r\n        public\r\n        articleExists(articleID)\r\n        hasNotVoted(articleID)\r\n    {\r\n        Article storage _articleToUpdate = articles[articleID];\r\n        if (state == VoteState.Yes)\r\n            _articleToUpdate.votesYes = _articleToUpdate.votesYes + 1;\r\n        else if (state == VoteState.No)\r\n            _articleToUpdate.votesNo = _articleToUpdate.votesNo + 1;\r\n\r\n        _articleToUpdate.addressesWithVote[msg.sender] = state;\r\n\r\n        emit ArticleUpdated(\r\n            _articleToUpdate.id,\r\n            _articleToUpdate.title,\r\n            _articleToUpdate.description,\r\n            _articleToUpdate.createdAt,\r\n            _articleToUpdate.votesYes,\r\n            _articleToUpdate.votesNo,\r\n            _articleToUpdate.price,\r\n            _articleToUpdate.expires\r\n        );\r\n    }\r\n\r\n    function removeVoteToArticle(uint256 articleID)\r\n        public\r\n        articleExists(articleID)\r\n        hasVoted(articleID)\r\n    {\r\n        Article storage _articleToUpdate = articles[articleID];\r\n        VoteState state = _articleToUpdate.addressesWithVote[msg.sender];\r\n        if (state == VoteState.Yes)\r\n            _articleToUpdate.votesYes = _articleToUpdate.votesYes - 1;\r\n        else if (state == VoteState.No)\r\n            _articleToUpdate.votesNo = _articleToUpdate.votesNo - 1;\r\n        _articleToUpdate.addressesWithVote[msg.sender] = VoteState.None;\r\n\r\n        emit ArticleUpdated(\r\n            _articleToUpdate.id,\r\n            _articleToUpdate.title,\r\n            _articleToUpdate.description,\r\n            _articleToUpdate.createdAt,\r\n            _articleToUpdate.votesYes,\r\n            _articleToUpdate.votesNo,\r\n            _articleToUpdate.price,\r\n            _articleToUpdate.expires\r\n        );\r\n    }\r\n\r\n    function endArticle(uint256 articleID) public articleExists(articleID) {\r\n        Article storage article = articles[articleID];\r\n        if (article.votesYes > article.votesNo) {\r\n            Token(tokenAddress).distribute(article.price);\r\n        }\r\n        delete article.id;\r\n    }\r\n\r\n    function votedStateBySender(uint256 articleID)\r\n        public\r\n        view\r\n        articleExists(articleID)\r\n        returns (VoteState)\r\n    {\r\n        return articles[articleID].addressesWithVote[msg.sender];\r\n    }\r\n}\r\n",
  "sourcePath": "D:\\Workspace\\Ethereum\\tasksVotar\\contracts\\ArticleContract.sol",
  "compiler": {
    "name": "solc",
    "version": "0.8.6+commit.11564f7e.Emscripten.clang"
  },
  "schemaVersion": "3.4.7",
  "updatedAt": "2022-05-16T19:12:23.919Z",
  "networkType": "ethereum",
  "devdoc": {
    "kind": "dev",
    "methods": {},
    "version": 1
  },
  "userdoc": {
    "kind": "user",
    "methods": {},
    "version": 1
  }
}