{
  "contractName": "Token",
  "abi": [
    {
      "inputs": [],
      "stateMutability": "nonpayable",
      "type": "constructor"
    },
    {
      "anonymous": false,
      "inputs": [
        {
          "indexed": true,
          "internalType": "address",
          "name": "owner",
          "type": "address"
        },
        {
          "indexed": true,
          "internalType": "address",
          "name": "spender",
          "type": "address"
        },
        {
          "indexed": false,
          "internalType": "uint256",
          "name": "value",
          "type": "uint256"
        }
      ],
      "name": "Approval",
      "type": "event"
    },
    {
      "anonymous": false,
      "inputs": [
        {
          "indexed": true,
          "internalType": "address",
          "name": "from",
          "type": "address"
        },
        {
          "indexed": true,
          "internalType": "address",
          "name": "to",
          "type": "address"
        },
        {
          "indexed": false,
          "internalType": "uint256",
          "name": "value",
          "type": "uint256"
        }
      ],
      "name": "Transfer",
      "type": "event"
    },
    {
      "inputs": [
        {
          "internalType": "address",
          "name": "owner",
          "type": "address"
        },
        {
          "internalType": "address",
          "name": "spender",
          "type": "address"
        }
      ],
      "name": "allowance",
      "outputs": [
        {
          "internalType": "uint256",
          "name": "",
          "type": "uint256"
        }
      ],
      "stateMutability": "view",
      "type": "function"
    },
    {
      "inputs": [
        {
          "internalType": "address",
          "name": "spender",
          "type": "address"
        },
        {
          "internalType": "uint256",
          "name": "amount",
          "type": "uint256"
        }
      ],
      "name": "approve",
      "outputs": [
        {
          "internalType": "bool",
          "name": "",
          "type": "bool"
        }
      ],
      "stateMutability": "nonpayable",
      "type": "function"
    },
    {
      "inputs": [
        {
          "internalType": "address",
          "name": "account",
          "type": "address"
        }
      ],
      "name": "balanceOf",
      "outputs": [
        {
          "internalType": "uint256",
          "name": "",
          "type": "uint256"
        }
      ],
      "stateMutability": "view",
      "type": "function"
    },
    {
      "inputs": [],
      "name": "decimals",
      "outputs": [
        {
          "internalType": "uint8",
          "name": "",
          "type": "uint8"
        }
      ],
      "stateMutability": "view",
      "type": "function"
    },
    {
      "inputs": [
        {
          "internalType": "address",
          "name": "spender",
          "type": "address"
        },
        {
          "internalType": "uint256",
          "name": "subtractedValue",
          "type": "uint256"
        }
      ],
      "name": "decreaseAllowance",
      "outputs": [
        {
          "internalType": "bool",
          "name": "",
          "type": "bool"
        }
      ],
      "stateMutability": "nonpayable",
      "type": "function"
    },
    {
      "inputs": [
        {
          "internalType": "address",
          "name": "spender",
          "type": "address"
        },
        {
          "internalType": "uint256",
          "name": "addedValue",
          "type": "uint256"
        }
      ],
      "name": "increaseAllowance",
      "outputs": [
        {
          "internalType": "bool",
          "name": "",
          "type": "bool"
        }
      ],
      "stateMutability": "nonpayable",
      "type": "function"
    },
    {
      "inputs": [],
      "name": "name",
      "outputs": [
        {
          "internalType": "string",
          "name": "",
          "type": "string"
        }
      ],
      "stateMutability": "view",
      "type": "function"
    },
    {
      "inputs": [],
      "name": "numParticipants",
      "outputs": [
        {
          "internalType": "uint256",
          "name": "",
          "type": "uint256"
        }
      ],
      "stateMutability": "view",
      "type": "function"
    },
    {
      "inputs": [],
      "name": "owner",
      "outputs": [
        {
          "internalType": "address",
          "name": "",
          "type": "address"
        }
      ],
      "stateMutability": "view",
      "type": "function"
    },
    {
      "inputs": [
        {
          "internalType": "uint256",
          "name": "",
          "type": "uint256"
        }
      ],
      "name": "participants",
      "outputs": [
        {
          "internalType": "address",
          "name": "p",
          "type": "address"
        },
        {
          "internalType": "bool",
          "name": "alive",
          "type": "bool"
        }
      ],
      "stateMutability": "view",
      "type": "function"
    },
    {
      "inputs": [],
      "name": "symbol",
      "outputs": [
        {
          "internalType": "string",
          "name": "",
          "type": "string"
        }
      ],
      "stateMutability": "view",
      "type": "function"
    },
    {
      "inputs": [],
      "name": "totalSupply",
      "outputs": [
        {
          "internalType": "uint256",
          "name": "",
          "type": "uint256"
        }
      ],
      "stateMutability": "view",
      "type": "function"
    },
    {
      "inputs": [
        {
          "internalType": "address",
          "name": "to",
          "type": "address"
        },
        {
          "internalType": "uint256",
          "name": "amount",
          "type": "uint256"
        }
      ],
      "name": "transfer",
      "outputs": [
        {
          "internalType": "bool",
          "name": "",
          "type": "bool"
        }
      ],
      "stateMutability": "nonpayable",
      "type": "function"
    },
    {
      "inputs": [
        {
          "internalType": "address",
          "name": "from",
          "type": "address"
        },
        {
          "internalType": "address",
          "name": "to",
          "type": "address"
        },
        {
          "internalType": "uint256",
          "name": "amount",
          "type": "uint256"
        }
      ],
      "name": "transferFrom",
      "outputs": [
        {
          "internalType": "bool",
          "name": "",
          "type": "bool"
        }
      ],
      "stateMutability": "nonpayable",
      "type": "function"
    },
    {
      "inputs": [
        {
          "internalType": "address",
          "name": "_search",
          "type": "address"
        }
      ],
      "name": "exist",
      "outputs": [
        {
          "internalType": "bool",
          "name": "",
          "type": "bool"
        }
      ],
      "stateMutability": "view",
      "type": "function"
    },
    {
      "inputs": [
        {
          "internalType": "address",
          "name": "_newPart",
          "type": "address"
        }
      ],
      "name": "newParticipant",
      "outputs": [],
      "stateMutability": "nonpayable",
      "type": "function"
    },
    {
      "inputs": [
        {
          "internalType": "address",
          "name": "_delPart",
          "type": "address"
        }
      ],
      "name": "delParticipant",
      "outputs": [],
      "stateMutability": "nonpayable",
      "type": "function"
    },
    {
      "inputs": [
        {
          "internalType": "address",
          "name": "_to",
          "type": "address"
        },
        {
          "internalType": "uint256",
          "name": "amount",
          "type": "uint256"
        }
      ],
      "name": "mint",
      "outputs": [],
      "stateMutability": "nonpayable",
      "type": "function"
    },
    {
      "inputs": [
        {
          "internalType": "address",
          "name": "_from",
          "type": "address"
        },
        {
          "internalType": "uint256",
          "name": "amount",
          "type": "uint256"
        }
      ],
      "name": "burn",
      "outputs": [],
      "stateMutability": "nonpayable",
      "type": "function"
    },
    {
      "inputs": [],
      "name": "addresses",
      "outputs": [
        {
          "internalType": "address[]",
          "name": "",
          "type": "address[]"
        }
      ],
      "stateMutability": "view",
      "type": "function"
    }
  ],
  "bytecode": "0x60806040523480156200001157600080fd5b506040518060400160405280600681526020017f69546f6b656e00000000000000000000000000000000000000000000000000008152506040518060400160405280600381526020017f494c540000000000000000000000000000000000000000000000000000000000815250816003908051906020019062000096929190620002c6565b508060049080519060200190620000af929190620002c6565b50505033600560006101000a81548173ffffffffffffffffffffffffffffffffffffffff021916908373ffffffffffffffffffffffffffffffffffffffff1602179055506200013433620001086200013a60201b60201c565b60ff16600a620001199190620004b6565b6103e8620001289190620005f3565b6200014360201b60201c565b62000728565b60006012905090565b600073ffffffffffffffffffffffffffffffffffffffff168273ffffffffffffffffffffffffffffffffffffffff161415620001b6576040517f08c379a0000000000000000000000000000000000000000000000000000000008152600401620001ad90620003ae565b60405180910390fd5b620001ca60008383620002bc60201b60201c565b8060026000828254620001de9190620003fe565b92505081905550806000808473ffffffffffffffffffffffffffffffffffffffff1673ffffffffffffffffffffffffffffffffffffffff1681526020019081526020016000206000828254620002359190620003fe565b925050819055508173ffffffffffffffffffffffffffffffffffffffff16600073ffffffffffffffffffffffffffffffffffffffff167fddf252ad1be2c89b69c2b068fc378daa952ba7f163c4a11628f55a4df523b3ef836040516200029c9190620003d0565b60405180910390a3620002b860008383620002c160201b60201c565b5050565b505050565b505050565b828054620002d4906200065e565b90600052602060002090601f016020900481019282620002f8576000855562000344565b82601f106200031357805160ff191683800117855562000344565b8280016001018555821562000344579182015b828111156200034357825182559160200191906001019062000326565b5b50905062000353919062000357565b5090565b5b808211156200037257600081600090555060010162000358565b5090565b600062000385601f83620003ed565b91506200039282620006ff565b602082019050919050565b620003a88162000654565b82525050565b60006020820190508181036000830152620003c98162000376565b9050919050565b6000602082019050620003e760008301846200039d565b92915050565b600082825260208201905092915050565b60006200040b8262000654565b9150620004188362000654565b9250827fffffffffffffffffffffffffffffffffffffffffffffffffffffffffffffffff0382111562000450576200044f62000694565b5b828201905092915050565b6000808291508390505b6001851115620004ad5780860481111562000485576200048462000694565b5b6001851615620004955780820291505b8081029050620004a585620006f2565b945062000465565b94509492505050565b6000620004c38262000654565b9150620004d08362000654565b9250620004ff7fffffffffffffffffffffffffffffffffffffffffffffffffffffffffffffffff848462000507565b905092915050565b600082620005195760019050620005ec565b81620005295760009050620005ec565b81600181146200054257600281146200054d5762000583565b6001915050620005ec565b60ff84111562000562576200056162000694565b5b8360020a9150848211156200057c576200057b62000694565b5b50620005ec565b5060208310610133831016604e8410600b8410161715620005bd5782820a905083811115620005b757620005b662000694565b5b620005ec565b620005cc84848460016200045b565b92509050818404811115620005e657620005e562000694565b5b81810290505b9392505050565b6000620006008262000654565b91506200060d8362000654565b9250817fffffffffffffffffffffffffffffffffffffffffffffffffffffffffffffffff048311821515161562000649576200064862000694565b5b828202905092915050565b6000819050919050565b600060028204905060018216806200067757607f821691505b602082108114156200068e576200068d620006c3565b5b50919050565b7f4e487b7100000000000000000000000000000000000000000000000000000000600052601160045260246000fd5b7f4e487b7100000000000000000000000000000000000000000000000000000000600052602260045260246000fd5b60008160011c9050919050565b7f45524332303a206d696e7420746f20746865207a65726f206164647265737300600082015250565b6126dc80620007386000396000f3fe608060405234801561001057600080fd5b506004361061012c5760003560e01c80634e76a846116100ad5780639dc29fac116100715780639dc29fac1461035a578063a457c2d714610376578063a9059cbb146103a6578063da0321cd146103d6578063dd62ed3e146103f45761012c565b80634e76a846146102b457806358bd16ca146102d257806370a08231146102ee5780638da5cb5b1461031e57806395d89b411461033c5761012c565b806335c1d349116100f457806335c1d349146101eb578063395093511461021c5780633ad998d31461024c57806340c10f19146102685780634dfefc4b146102845761012c565b806306fdde0314610131578063095ea7b31461014f57806318160ddd1461017f57806323b872dd1461019d578063313ce567146101cd575b600080fd5b610139610424565b6040516101469190611c5f565b60405180910390f35b610169600480360381019061016491906118b0565b6104b6565b6040516101769190611c44565b60405180910390f35b6101876104d9565b6040516101949190611e21565b60405180910390f35b6101b760048036038101906101b2919061185d565b6104e3565b6040516101c49190611c44565b60405180910390f35b6101d5610512565b6040516101e29190611e3c565b60405180910390f35b610205600480360381019061020091906118f0565b61051b565b604051610213929190611bf9565b60405180910390f35b610236600480360381019061023191906118b0565b610578565b6040516102439190611c44565b60405180910390f35b610266600480360381019061026191906117f0565b6105af565b005b610282600480360381019061027d91906118b0565b610786565b005b61029e600480360381019061029991906117f0565b610845565b6040516102ab9190611c44565b60405180910390f35b6102bc61092c565b6040516102c99190611e21565b60405180910390f35b6102ec60048036038101906102e791906117f0565b610932565b005b610308600480360381019061030391906117f0565b610b3f565b6040516103159190611e21565b60405180910390f35b610326610b87565b6040516103339190611bde565b60405180910390f35b610344610bad565b6040516103519190611c5f565b60405180910390f35b610374600480360381019061036f91906118b0565b610c3f565b005b610390600480360381019061038b91906118b0565b610cfe565b60405161039d9190611c44565b60405180910390f35b6103c060048036038101906103bb91906118b0565b610d75565b6040516103cd9190611c44565b60405180910390f35b6103de610d98565b6040516103eb9190611c22565b60405180910390f35b61040e6004803603810190610409919061181d565b610eec565b60405161041b9190611e21565b60405180910390f35b606060038054610433906121b3565b80601f016020809104026020016040519081016040528092919081815260200182805461045f906121b3565b80156104ac5780601f10610481576101008083540402835291602001916104ac565b820191906000526020600020905b81548152906001019060200180831161048f57829003601f168201915b5050505050905090565b6000806104c1610f73565b90506104ce818585610f7b565b600191505092915050565b6000600254905090565b6000806104ee610f73565b90506104fb858285611146565b6105068585856111d2565b60019150509392505050565b60006012905090565b6006818154811061052b57600080fd5b906000526020600020016000915090508060000160009054906101000a900473ffffffffffffffffffffffffffffffffffffffff16908060000160149054906101000a900460ff16905082565b600080610583610f73565b90506105a48185856105958589610eec565b61059f9190611eac565b610f7b565b600191505092915050565b600560009054906101000a900473ffffffffffffffffffffffffffffffffffffffff1673ffffffffffffffffffffffffffffffffffffffff163373ffffffffffffffffffffffffffffffffffffffff161461063f576040517f08c379a000000000000000000000000000000000000000000000000000000000815260040161063690611d41565b60405180910390fd5b61064881610845565b15610688576040517f08c379a000000000000000000000000000000000000000000000000000000000815260040161067f90611c81565b60405180910390fd5b610690611794565b81816000019073ffffffffffffffffffffffffffffffffffffffff16908173ffffffffffffffffffffffffffffffffffffffff168152505060018160200190151590811515815250506006819080600181540180825580915050600190039060005260206000200160009091909190915060008201518160000160006101000a81548173ffffffffffffffffffffffffffffffffffffffff021916908373ffffffffffffffffffffffffffffffffffffffff16021790555060208201518160000160146101000a81548160ff02191690831515021790555050506007600081548092919061077d906121e5565b91905055505050565b600560009054906101000a900473ffffffffffffffffffffffffffffffffffffffff1673ffffffffffffffffffffffffffffffffffffffff163373ffffffffffffffffffffffffffffffffffffffff1614610816576040517f08c379a000000000000000000000000000000000000000000000000000000000815260040161080d90611d41565b60405180910390fd5b61084182610822610512565b60ff16600a6108319190611f55565b8361083c9190612073565b611453565b5050565b6000806000905060005b81158015610861575060068054905081105b15610922578373ffffffffffffffffffffffffffffffffffffffff16600682815481106108915761089061228c565b5b9060005260206000200160000160009054906101000a900473ffffffffffffffffffffffffffffffffffffffff1673ffffffffffffffffffffffffffffffffffffffff1614801561090d5750600681815481106108f1576108f061228c565b5b9060005260206000200160000160149054906101000a900460ff165b9150808061091a906121e5565b91505061084f565b8192505050919050565b60075481565b600560009054906101000a900473ffffffffffffffffffffffffffffffffffffffff1673ffffffffffffffffffffffffffffffffffffffff163373ffffffffffffffffffffffffffffffffffffffff16146109c2576040517f08c379a00000000000000000000000000000000000000000000000000000000081526004016109b990611d41565b60405180910390fd5b6109cb81610845565b610a0a576040517f08c379a0000000000000000000000000000000000000000000000000000000008152600401610a0190611d81565b60405180910390fd5b6000805b81158015610a20575060068054905081105b15610b22578273ffffffffffffffffffffffffffffffffffffffff1660068281548110610a5057610a4f61228c565b5b9060005260206000200160000160009054906101000a900473ffffffffffffffffffffffffffffffffffffffff1673ffffffffffffffffffffffffffffffffffffffff16148015610acc575060068181548110610ab057610aaf61228c565b5b9060005260206000200160000160149054906101000a900460ff165b91508115610b0f57600060068281548110610aea57610ae961228c565b5b9060005260206000200160000160146101000a81548160ff0219169083151502179055505b8080610b1a906121e5565b915050610a0e565b60076000815480929190610b3590612189565b9190505550505050565b60008060008373ffffffffffffffffffffffffffffffffffffffff1673ffffffffffffffffffffffffffffffffffffffff168152602001908152602001600020549050919050565b600560009054906101000a900473ffffffffffffffffffffffffffffffffffffffff1681565b606060048054610bbc906121b3565b80601f0160208091040260200160405190810160405280929190818152602001828054610be8906121b3565b8015610c355780601f10610c0a57610100808354040283529160200191610c35565b820191906000526020600020905b815481529060010190602001808311610c1857829003601f168201915b5050505050905090565b600560009054906101000a900473ffffffffffffffffffffffffffffffffffffffff1673ffffffffffffffffffffffffffffffffffffffff163373ffffffffffffffffffffffffffffffffffffffff1614610ccf576040517f08c379a0000000000000000000000000000000000000000000000000000000008152600401610cc690611d41565b60405180910390fd5b610cfa82610cdb610512565b60ff16600a610cea9190611f55565b83610cf59190612073565b6115b3565b5050565b600080610d09610f73565b90506000610d178286610eec565b905083811015610d5c576040517f08c379a0000000000000000000000000000000000000000000000000000000008152600401610d5390611de1565b60405180910390fd5b610d698286868403610f7b565b60019250505092915050565b600080610d80610f73565b9050610d8d8185856111d2565b600191505092915050565b6060600060075467ffffffffffffffff811115610db857610db76122bb565b5b604051908082528060200260200182016040528015610de65781602001602082028036833780820191505090505b509050600080600090505b600680549050811015610ee35760068181548110610e1257610e1161228c565b5b9060005260206000200160000160149054906101000a900460ff1615610ed05760068181548110610e4657610e4561228c565b5b9060005260206000200160000160009054906101000a900473ffffffffffffffffffffffffffffffffffffffff16838381518110610e8757610e8661228c565b5b602002602001019073ffffffffffffffffffffffffffffffffffffffff16908173ffffffffffffffffffffffffffffffffffffffff16815250508180610ecc906121e5565b9250505b8080610edb906121e5565b915050610df1565b50819250505090565b6000600160008473ffffffffffffffffffffffffffffffffffffffff1673ffffffffffffffffffffffffffffffffffffffff16815260200190815260200160002060008373ffffffffffffffffffffffffffffffffffffffff1673ffffffffffffffffffffffffffffffffffffffff16815260200190815260200160002054905092915050565b600033905090565b600073ffffffffffffffffffffffffffffffffffffffff168373ffffffffffffffffffffffffffffffffffffffff161415610feb576040517f08c379a0000000000000000000000000000000000000000000000000000000008152600401610fe290611dc1565b60405180910390fd5b600073ffffffffffffffffffffffffffffffffffffffff168273ffffffffffffffffffffffffffffffffffffffff16141561105b576040517f08c379a000000000000000000000000000000000000000000000000000000000815260040161105290611ce1565b60405180910390fd5b80600160008573ffffffffffffffffffffffffffffffffffffffff1673ffffffffffffffffffffffffffffffffffffffff16815260200190815260200160002060008473ffffffffffffffffffffffffffffffffffffffff1673ffffffffffffffffffffffffffffffffffffffff168152602001908152602001600020819055508173ffffffffffffffffffffffffffffffffffffffff168373ffffffffffffffffffffffffffffffffffffffff167f8c5be1e5ebec7d5bd14f71427d1e84f3dd0314c0f7b2291e5b200ac8c7c3b925836040516111399190611e21565b60405180910390a3505050565b60006111528484610eec565b90507fffffffffffffffffffffffffffffffffffffffffffffffffffffffffffffffff81146111cc57818110156111be576040517f08c379a00000000000000000000000000000000000000000000000000000000081526004016111b590611d01565b60405180910390fd5b6111cb8484848403610f7b565b5b50505050565b600073ffffffffffffffffffffffffffffffffffffffff168373ffffffffffffffffffffffffffffffffffffffff161415611242576040517f08c379a000000000000000000000000000000000000000000000000000000000815260040161123990611da1565b60405180910390fd5b600073ffffffffffffffffffffffffffffffffffffffff168273ffffffffffffffffffffffffffffffffffffffff1614156112b2576040517f08c379a00000000000000000000000000000000000000000000000000000000081526004016112a990611ca1565b60405180910390fd5b6112bd83838361178a565b60008060008573ffffffffffffffffffffffffffffffffffffffff1673ffffffffffffffffffffffffffffffffffffffff16815260200190815260200160002054905081811015611343576040517f08c379a000000000000000000000000000000000000000000000000000000000815260040161133a90611d21565b60405180910390fd5b8181036000808673ffffffffffffffffffffffffffffffffffffffff1673ffffffffffffffffffffffffffffffffffffffff16815260200190815260200160002081905550816000808573ffffffffffffffffffffffffffffffffffffffff1673ffffffffffffffffffffffffffffffffffffffff16815260200190815260200160002060008282546113d69190611eac565b925050819055508273ffffffffffffffffffffffffffffffffffffffff168473ffffffffffffffffffffffffffffffffffffffff167fddf252ad1be2c89b69c2b068fc378daa952ba7f163c4a11628f55a4df523b3ef8460405161143a9190611e21565b60405180910390a361144d84848461178f565b50505050565b600073ffffffffffffffffffffffffffffffffffffffff168273ffffffffffffffffffffffffffffffffffffffff1614156114c3576040517f08c379a00000000000000000000000000000000000000000000000000000000081526004016114ba90611e01565b60405180910390fd5b6114cf6000838361178a565b80600260008282546114e19190611eac565b92505081905550806000808473ffffffffffffffffffffffffffffffffffffffff1673ffffffffffffffffffffffffffffffffffffffff16815260200190815260200160002060008282546115369190611eac565b925050819055508173ffffffffffffffffffffffffffffffffffffffff16600073ffffffffffffffffffffffffffffffffffffffff167fddf252ad1be2c89b69c2b068fc378daa952ba7f163c4a11628f55a4df523b3ef8360405161159b9190611e21565b60405180910390a36115af6000838361178f565b5050565b600073ffffffffffffffffffffffffffffffffffffffff168273ffffffffffffffffffffffffffffffffffffffff161415611623576040517f08c379a000000000000000000000000000000000000000000000000000000000815260040161161a90611d61565b60405180910390fd5b61162f8260008361178a565b60008060008473ffffffffffffffffffffffffffffffffffffffff1673ffffffffffffffffffffffffffffffffffffffff168152602001908152602001600020549050818110156116b5576040517f08c379a00000000000000000000000000000000000000000000000000000000081526004016116ac90611cc1565b60405180910390fd5b8181036000808573ffffffffffffffffffffffffffffffffffffffff1673ffffffffffffffffffffffffffffffffffffffff16815260200190815260200160002081905550816002600082825461170c91906120cd565b92505081905550600073ffffffffffffffffffffffffffffffffffffffff168373ffffffffffffffffffffffffffffffffffffffff167fddf252ad1be2c89b69c2b068fc378daa952ba7f163c4a11628f55a4df523b3ef846040516117719190611e21565b60405180910390a36117858360008461178f565b505050565b505050565b505050565b6040518060400160405280600073ffffffffffffffffffffffffffffffffffffffff1681526020016000151581525090565b6000813590506117d581612678565b92915050565b6000813590506117ea8161268f565b92915050565b600060208284031215611806576118056122ea565b5b6000611814848285016117c6565b91505092915050565b60008060408385031215611834576118336122ea565b5b6000611842858286016117c6565b9250506020611853858286016117c6565b9150509250929050565b600080600060608486031215611876576118756122ea565b5b6000611884868287016117c6565b9350506020611895868287016117c6565b92505060406118a6868287016117db565b9150509250925092565b600080604083850312156118c7576118c66122ea565b5b60006118d5858286016117c6565b92505060206118e6858286016117db565b9150509250929050565b600060208284031215611906576119056122ea565b5b6000611914848285016117db565b91505092915050565b60006119298383611935565b60208301905092915050565b61193e81612101565b82525050565b61194d81612101565b82525050565b600061195e82611e67565b6119688185611e8a565b935061197383611e57565b8060005b838110156119a457815161198b888261191d565b975061199683611e7d565b925050600181019050611977565b5085935050505092915050565b6119ba81612113565b82525050565b60006119cb82611e72565b6119d58185611e9b565b93506119e5818560208601612156565b6119ee816122ef565b840191505092915050565b6000611a06601f83611e9b565b9150611a118261230d565b602082019050919050565b6000611a29602383611e9b565b9150611a3482612336565b604082019050919050565b6000611a4c602283611e9b565b9150611a5782612385565b604082019050919050565b6000611a6f602283611e9b565b9150611a7a826123d4565b604082019050919050565b6000611a92601d83611e9b565b9150611a9d82612423565b602082019050919050565b6000611ab5602683611e9b565b9150611ac08261244c565b604082019050919050565b6000611ad8602383611e9b565b9150611ae38261249b565b604082019050919050565b6000611afb602183611e9b565b9150611b06826124ea565b604082019050919050565b6000611b1e601483611e9b565b9150611b2982612539565b602082019050919050565b6000611b41602583611e9b565b9150611b4c82612562565b604082019050919050565b6000611b64602483611e9b565b9150611b6f826125b1565b604082019050919050565b6000611b87602583611e9b565b9150611b9282612600565b604082019050919050565b6000611baa601f83611e9b565b9150611bb58261264f565b602082019050919050565b611bc98161213f565b82525050565b611bd881612149565b82525050565b6000602082019050611bf36000830184611944565b92915050565b6000604082019050611c0e6000830185611944565b611c1b60208301846119b1565b9392505050565b60006020820190508181036000830152611c3c8184611953565b905092915050565b6000602082019050611c5960008301846119b1565b92915050565b60006020820190508181036000830152611c7981846119c0565b905092915050565b60006020820190508181036000830152611c9a816119f9565b9050919050565b60006020820190508181036000830152611cba81611a1c565b9050919050565b60006020820190508181036000830152611cda81611a3f565b9050919050565b60006020820190508181036000830152611cfa81611a62565b9050919050565b60006020820190508181036000830152611d1a81611a85565b9050919050565b60006020820190508181036000830152611d3a81611aa8565b9050919050565b60006020820190508181036000830152611d5a81611acb565b9050919050565b60006020820190508181036000830152611d7a81611aee565b9050919050565b60006020820190508181036000830152611d9a81611b11565b9050919050565b60006020820190508181036000830152611dba81611b34565b9050919050565b60006020820190508181036000830152611dda81611b57565b9050919050565b60006020820190508181036000830152611dfa81611b7a565b9050919050565b60006020820190508181036000830152611e1a81611b9d565b9050919050565b6000602082019050611e366000830184611bc0565b92915050565b6000602082019050611e516000830184611bcf565b92915050565b6000819050602082019050919050565b600081519050919050565b600081519050919050565b6000602082019050919050565b600082825260208201905092915050565b600082825260208201905092915050565b6000611eb78261213f565b9150611ec28361213f565b9250827fffffffffffffffffffffffffffffffffffffffffffffffffffffffffffffffff03821115611ef757611ef661222e565b5b828201905092915050565b6000808291508390505b6001851115611f4c57808604811115611f2857611f2761222e565b5b6001851615611f375780820291505b8081029050611f4585612300565b9450611f0c565b94509492505050565b6000611f608261213f565b9150611f6b8361213f565b9250611f987fffffffffffffffffffffffffffffffffffffffffffffffffffffffffffffffff8484611fa0565b905092915050565b600082611fb0576001905061206c565b81611fbe576000905061206c565b8160018114611fd45760028114611fde5761200d565b600191505061206c565b60ff841115611ff057611fef61222e565b5b8360020a9150848211156120075761200661222e565b5b5061206c565b5060208310610133831016604e8410600b84101617156120425782820a90508381111561203d5761203c61222e565b5b61206c565b61204f8484846001611f02565b925090508184048111156120665761206561222e565b5b81810290505b9392505050565b600061207e8261213f565b91506120898361213f565b9250817fffffffffffffffffffffffffffffffffffffffffffffffffffffffffffffffff04831182151516156120c2576120c161222e565b5b828202905092915050565b60006120d88261213f565b91506120e38361213f565b9250828210156120f6576120f561222e565b5b828203905092915050565b600061210c8261211f565b9050919050565b60008115159050919050565b600073ffffffffffffffffffffffffffffffffffffffff82169050919050565b6000819050919050565b600060ff82169050919050565b60005b83811015612174578082015181840152602081019050612159565b83811115612183576000848401525b50505050565b60006121948261213f565b915060008214156121a8576121a761222e565b5b600182039050919050565b600060028204905060018216806121cb57607f821691505b602082108114156121df576121de61225d565b5b50919050565b60006121f08261213f565b91507fffffffffffffffffffffffffffffffffffffffffffffffffffffffffffffffff8214156122235761222261222e565b5b600182019050919050565b7f4e487b7100000000000000000000000000000000000000000000000000000000600052601160045260246000fd5b7f4e487b7100000000000000000000000000000000000000000000000000000000600052602260045260246000fd5b7f4e487b7100000000000000000000000000000000000000000000000000000000600052603260045260246000fd5b7f4e487b7100000000000000000000000000000000000000000000000000000000600052604160045260246000fd5b600080fd5b6000601f19601f8301169050919050565b60008160011c9050919050565b7f456c207573756172696f2079612065737461206461646f20646520616c746100600082015250565b7f45524332303a207472616e7366657220746f20746865207a65726f206164647260008201527f6573730000000000000000000000000000000000000000000000000000000000602082015250565b7f45524332303a206275726e20616d6f756e7420657863656564732062616c616e60008201527f6365000000000000000000000000000000000000000000000000000000000000602082015250565b7f45524332303a20617070726f766520746f20746865207a65726f20616464726560008201527f7373000000000000000000000000000000000000000000000000000000000000602082015250565b7f45524332303a20696e73756666696369656e7420616c6c6f77616e6365000000600082015250565b7f45524332303a207472616e7366657220616d6f756e742065786365656473206260008201527f616c616e63650000000000000000000000000000000000000000000000000000602082015250565b7f4e6f206572657320656c2070726f706965746172696f2064656c20636f6e747260008201527f61746f0000000000000000000000000000000000000000000000000000000000602082015250565b7f45524332303a206275726e2066726f6d20746865207a65726f2061646472657360008201527f7300000000000000000000000000000000000000000000000000000000000000602082015250565b7f456c207573756172696f206e6f20657869737465000000000000000000000000600082015250565b7f45524332303a207472616e736665722066726f6d20746865207a65726f20616460008201527f6472657373000000000000000000000000000000000000000000000000000000602082015250565b7f45524332303a20617070726f76652066726f6d20746865207a65726f2061646460008201527f7265737300000000000000000000000000000000000000000000000000000000602082015250565b7f45524332303a2064656372656173656420616c6c6f77616e63652062656c6f7760008201527f207a65726f000000000000000000000000000000000000000000000000000000602082015250565b7f45524332303a206d696e7420746f20746865207a65726f206164647265737300600082015250565b61268181612101565b811461268c57600080fd5b50565b6126988161213f565b81146126a357600080fd5b5056fea2646970667358221220a809f8e8a1aa8db9658bd8dc15a07860b8c1211a15d69a3d2660eedbe19c1ee564736f6c63430008060033",
  "immutableReferences": {},
  "source": "//SPDX-License-Identifier:MIT\r\npragma solidity ^0.8.6;\r\npragma experimental ABIEncoderV2;\r\n\r\nimport \"@openzeppelin/contracts/token/ERC20/ERC20.sol\";\r\n\r\ncontract Token is ERC20 {\r\n\r\n    address public owner;\r\n    \r\n    struct Participant{\r\n        address p;\r\n        bool alive;\r\n    }\r\n\r\n    Participant[] public participants;\r\n    uint public numParticipants;\r\n\r\n    constructor () ERC20(\"iToken\", \"ILT\") {\r\n        owner = msg.sender;\r\n        _mint(msg.sender, 1000 * (10 ** uint256(decimals())));\r\n    }\r\n\r\n    function exist(address _search) public view returns (bool){\r\n        bool found = false;\r\n        uint i = 0;\r\n\r\n        while (! found && i < participants.length){\r\n            found = participants[i].p == _search && participants[i].alive;\r\n            i++;\r\n        }\r\n\r\n        return found;\r\n    }\r\n\r\n    function newParticipant(address _newPart) public{\r\n        require(msg.sender==owner,\"No eres el propietario del contrato\");\r\n        require(!exist(_newPart),\"El usuario ya esta dado de alta\");\r\n        Participant memory regPart;\r\n        regPart.p = _newPart;\r\n        regPart.alive = true;\r\n        participants.push(regPart);\r\n        numParticipants++;\r\n    }\r\n\r\n    function delParticipant(address _delPart) public{\r\n        require(msg.sender==owner,\"No eres el propietario del contrato\");\r\n        require(exist(_delPart),\"El usuario no existe\");\r\n\r\n        bool found = false;\r\n        uint i = 0;\r\n        \r\n        while (! found && i < participants.length){\r\n            found = participants[i].p == _delPart && participants[i].alive;\r\n            if (found){\r\n                participants[i].alive = false;\r\n            }\r\n            i++;\r\n        }\r\n\r\n        numParticipants--;\r\n    }\r\n\r\n    function mint(address _to, uint amount) public{\r\n        require(msg.sender==owner,\"No eres el propietario del contrato\");\r\n        _mint(_to,amount * (10 ** uint256(decimals())));\r\n    }\r\n\r\n    function burn(address _from, uint amount) public{\r\n        require(msg.sender==owner,\"No eres el propietario del contrato\");\r\n        _burn(_from,amount * (10 ** uint256(decimals())));\r\n    }\r\n\r\n    function addresses () public view returns (address[] memory){\r\n        address[] memory address_list = new address[](numParticipants);\r\n        uint index;\r\n\r\n        for(uint i=0; i < participants.length; i++){\r\n            if(participants[i].alive){\r\n                address_list[index] = participants[i].p;\r\n                index++;\r\n            }\r\n        }\r\n\r\n        return address_list;\r\n\r\n    }\r\n\r\n}\r\n\r\n",
  "sourcePath": "D:\\Workspace\\Ethereum\\tasksVotar\\contracts\\itoken.sol",
  "compiler": {
    "name": "solc",
    "version": "0.8.6+commit.11564f7e.Emscripten.clang"
  },
  "schemaVersion": "3.4.7",
  "updatedAt": "2022-05-16T09:35:25.022Z",
  "devdoc": {
    "kind": "dev",
    "methods": {
      "allowance(address,address)": {
        "details": "See {IERC20-allowance}."
      },
      "approve(address,uint256)": {
        "details": "See {IERC20-approve}. NOTE: If `amount` is the maximum `uint256`, the allowance is not updated on `transferFrom`. This is semantically equivalent to an infinite approval. Requirements: - `spender` cannot be the zero address."
      },
      "balanceOf(address)": {
        "details": "See {IERC20-balanceOf}."
      },
      "decimals()": {
        "details": "Returns the number of decimals used to get its user representation. For example, if `decimals` equals `2`, a balance of `505` tokens should be displayed to a user as `5.05` (`505 / 10 ** 2`). Tokens usually opt for a value of 18, imitating the relationship between Ether and Wei. This is the value {ERC20} uses, unless this function is overridden; NOTE: This information is only used for _display_ purposes: it in no way affects any of the arithmetic of the contract, including {IERC20-balanceOf} and {IERC20-transfer}."
      },
      "decreaseAllowance(address,uint256)": {
        "details": "Atomically decreases the allowance granted to `spender` by the caller. This is an alternative to {approve} that can be used as a mitigation for problems described in {IERC20-approve}. Emits an {Approval} event indicating the updated allowance. Requirements: - `spender` cannot be the zero address. - `spender` must have allowance for the caller of at least `subtractedValue`."
      },
      "increaseAllowance(address,uint256)": {
        "details": "Atomically increases the allowance granted to `spender` by the caller. This is an alternative to {approve} that can be used as a mitigation for problems described in {IERC20-approve}. Emits an {Approval} event indicating the updated allowance. Requirements: - `spender` cannot be the zero address."
      },
      "name()": {
        "details": "Returns the name of the token."
      },
      "symbol()": {
        "details": "Returns the symbol of the token, usually a shorter version of the name."
      },
      "totalSupply()": {
        "details": "See {IERC20-totalSupply}."
      },
      "transfer(address,uint256)": {
        "details": "See {IERC20-transfer}. Requirements: - `to` cannot be the zero address. - the caller must have a balance of at least `amount`."
      },
      "transferFrom(address,address,uint256)": {
        "details": "See {IERC20-transferFrom}. Emits an {Approval} event indicating the updated allowance. This is not required by the EIP. See the note at the beginning of {ERC20}. NOTE: Does not update the allowance if the current allowance is the maximum `uint256`. Requirements: - `from` and `to` cannot be the zero address. - `from` must have a balance of at least `amount`. - the caller must have allowance for ``from``'s tokens of at least `amount`."
      }
    },
    "version": 1
  },
  "userdoc": {
    "kind": "user",
    "methods": {},
    "version": 1
  }
}