{
  "contractName": "Token",
  "abi": [
    {
      "inputs": [],
      "stateMutability": "nonpayable",
      "type": "constructor"
    },
    {
      "anonymous": false,
      "inputs": [
        {
          "indexed": true,
          "internalType": "address",
          "name": "owner",
          "type": "address"
        },
        {
          "indexed": true,
          "internalType": "address",
          "name": "spender",
          "type": "address"
        },
        {
          "indexed": false,
          "internalType": "uint256",
          "name": "value",
          "type": "uint256"
        }
      ],
      "name": "Approval",
      "type": "event"
    },
    {
      "anonymous": false,
      "inputs": [
        {
          "indexed": true,
          "internalType": "address",
          "name": "from",
          "type": "address"
        },
        {
          "indexed": true,
          "internalType": "address",
          "name": "to",
          "type": "address"
        },
        {
          "indexed": false,
          "internalType": "uint256",
          "name": "value",
          "type": "uint256"
        }
      ],
      "name": "Transfer",
      "type": "event"
    },
    {
      "inputs": [
        {
          "internalType": "address",
          "name": "owner",
          "type": "address"
        },
        {
          "internalType": "address",
          "name": "spender",
          "type": "address"
        }
      ],
      "name": "allowance",
      "outputs": [
        {
          "internalType": "uint256",
          "name": "",
          "type": "uint256"
        }
      ],
      "stateMutability": "view",
      "type": "function",
      "constant": true
    },
    {
      "inputs": [
        {
          "internalType": "address",
          "name": "spender",
          "type": "address"
        },
        {
          "internalType": "uint256",
          "name": "amount",
          "type": "uint256"
        }
      ],
      "name": "approve",
      "outputs": [
        {
          "internalType": "bool",
          "name": "",
          "type": "bool"
        }
      ],
      "stateMutability": "nonpayable",
      "type": "function"
    },
    {
      "inputs": [
        {
          "internalType": "address",
          "name": "account",
          "type": "address"
        }
      ],
      "name": "balanceOf",
      "outputs": [
        {
          "internalType": "uint256",
          "name": "",
          "type": "uint256"
        }
      ],
      "stateMutability": "view",
      "type": "function",
      "constant": true
    },
    {
      "inputs": [],
      "name": "decimals",
      "outputs": [
        {
          "internalType": "uint8",
          "name": "",
          "type": "uint8"
        }
      ],
      "stateMutability": "view",
      "type": "function",
      "constant": true
    },
    {
      "inputs": [
        {
          "internalType": "address",
          "name": "spender",
          "type": "address"
        },
        {
          "internalType": "uint256",
          "name": "subtractedValue",
          "type": "uint256"
        }
      ],
      "name": "decreaseAllowance",
      "outputs": [
        {
          "internalType": "bool",
          "name": "",
          "type": "bool"
        }
      ],
      "stateMutability": "nonpayable",
      "type": "function"
    },
    {
      "inputs": [
        {
          "internalType": "address",
          "name": "spender",
          "type": "address"
        },
        {
          "internalType": "uint256",
          "name": "addedValue",
          "type": "uint256"
        }
      ],
      "name": "increaseAllowance",
      "outputs": [
        {
          "internalType": "bool",
          "name": "",
          "type": "bool"
        }
      ],
      "stateMutability": "nonpayable",
      "type": "function"
    },
    {
      "inputs": [],
      "name": "name",
      "outputs": [
        {
          "internalType": "string",
          "name": "",
          "type": "string"
        }
      ],
      "stateMutability": "view",
      "type": "function",
      "constant": true
    },
    {
      "inputs": [],
      "name": "numParticipants",
      "outputs": [
        {
          "internalType": "uint256",
          "name": "",
          "type": "uint256"
        }
      ],
      "stateMutability": "view",
      "type": "function",
      "constant": true
    },
    {
      "inputs": [],
      "name": "owner",
      "outputs": [
        {
          "internalType": "address",
          "name": "",
          "type": "address"
        }
      ],
      "stateMutability": "view",
      "type": "function",
      "constant": true
    },
    {
      "inputs": [
        {
          "internalType": "uint256",
          "name": "",
          "type": "uint256"
        }
      ],
      "name": "participants",
      "outputs": [
        {
          "internalType": "address",
          "name": "p",
          "type": "address"
        },
        {
          "internalType": "bool",
          "name": "alive",
          "type": "bool"
        }
      ],
      "stateMutability": "view",
      "type": "function",
      "constant": true
    },
    {
      "inputs": [],
      "name": "symbol",
      "outputs": [
        {
          "internalType": "string",
          "name": "",
          "type": "string"
        }
      ],
      "stateMutability": "view",
      "type": "function",
      "constant": true
    },
    {
      "inputs": [],
      "name": "totalSupply",
      "outputs": [
        {
          "internalType": "uint256",
          "name": "",
          "type": "uint256"
        }
      ],
      "stateMutability": "view",
      "type": "function",
      "constant": true
    },
    {
      "inputs": [
        {
          "internalType": "address",
          "name": "to",
          "type": "address"
        },
        {
          "internalType": "uint256",
          "name": "amount",
          "type": "uint256"
        }
      ],
      "name": "transfer",
      "outputs": [
        {
          "internalType": "bool",
          "name": "",
          "type": "bool"
        }
      ],
      "stateMutability": "nonpayable",
      "type": "function"
    },
    {
      "inputs": [
        {
          "internalType": "address",
          "name": "from",
          "type": "address"
        },
        {
          "internalType": "address",
          "name": "to",
          "type": "address"
        },
        {
          "internalType": "uint256",
          "name": "amount",
          "type": "uint256"
        }
      ],
      "name": "transferFrom",
      "outputs": [
        {
          "internalType": "bool",
          "name": "",
          "type": "bool"
        }
      ],
      "stateMutability": "nonpayable",
      "type": "function"
    },
    {
      "inputs": [
        {
          "internalType": "address",
          "name": "_search",
          "type": "address"
        }
      ],
      "name": "exist",
      "outputs": [
        {
          "internalType": "bool",
          "name": "",
          "type": "bool"
        }
      ],
      "stateMutability": "view",
      "type": "function",
      "constant": true
    },
    {
      "inputs": [
        {
          "internalType": "address",
          "name": "_newPart",
          "type": "address"
        }
      ],
      "name": "newParticipant",
      "outputs": [],
      "stateMutability": "nonpayable",
      "type": "function"
    },
    {
      "inputs": [
        {
          "internalType": "address",
          "name": "_delPart",
          "type": "address"
        }
      ],
      "name": "delParticipant",
      "outputs": [],
      "stateMutability": "nonpayable",
      "type": "function"
    },
    {
      "inputs": [
        {
          "internalType": "address",
          "name": "_to",
          "type": "address"
        },
        {
          "internalType": "uint256",
          "name": "amount",
          "type": "uint256"
        }
      ],
      "name": "mint",
      "outputs": [],
      "stateMutability": "nonpayable",
      "type": "function"
    },
    {
      "inputs": [
        {
          "internalType": "address",
          "name": "_from",
          "type": "address"
        },
        {
          "internalType": "uint256",
          "name": "amount",
          "type": "uint256"
        }
      ],
      "name": "burn",
      "outputs": [],
      "stateMutability": "nonpayable",
      "type": "function"
    },
    {
      "inputs": [
        {
          "internalType": "uint256",
          "name": "price",
          "type": "uint256"
        }
      ],
      "name": "distribute",
      "outputs": [],
      "stateMutability": "nonpayable",
      "type": "function"
    },
    {
      "inputs": [],
      "name": "addresses",
      "outputs": [
        {
          "internalType": "address[]",
          "name": "",
          "type": "address[]"
        }
      ],
      "stateMutability": "view",
      "type": "function",
      "constant": true
    }
  ],
  "bytecode": "0x60806040523480156200001157600080fd5b506040518060400160405280600681526020017f69546f6b656e00000000000000000000000000000000000000000000000000008152506040518060400160405280600381526020017f494c540000000000000000000000000000000000000000000000000000000000815250816003908051906020019062000096929190620005b3565b508060049080519060200190620000af929190620005b3565b50505033600560006101000a81548173ffffffffffffffffffffffffffffffffffffffff021916908373ffffffffffffffffffffffffffffffffffffffff16021790555062000104336200014b60201b60201c565b6200014533620001196200033460201b60201c565b60ff16600a6200012a919062000867565b6103e8620001399190620009a4565b6200033d60201b60201c565b62000bce565b600560009054906101000a900473ffffffffffffffffffffffffffffffffffffffff1673ffffffffffffffffffffffffffffffffffffffff163373ffffffffffffffffffffffffffffffffffffffff1614620001de576040517f08c379a0000000000000000000000000000000000000000000000000000000008152600401620001d5906200073d565b60405180910390fd5b620001ef81620004b660201b60201c565b1562000232576040517f08c379a000000000000000000000000000000000000000000000000000000000815260040162000229906200071b565b60405180910390fd5b6200023c62000644565b81816000019073ffffffffffffffffffffffffffffffffffffffff16908173ffffffffffffffffffffffffffffffffffffffff168152505060018160200190151590811515815250506006819080600181540180825580915050600190039060005260206000200160009091909190915060008201518160000160006101000a81548173ffffffffffffffffffffffffffffffffffffffff021916908373ffffffffffffffffffffffffffffffffffffffff16021790555060208201518160000160146101000a81548160ff0219169083151502179055505050600760008154809291906200032b9062000a45565b91905055505050565b60006012905090565b600073ffffffffffffffffffffffffffffffffffffffff168273ffffffffffffffffffffffffffffffffffffffff161415620003b0576040517f08c379a0000000000000000000000000000000000000000000000000000000008152600401620003a7906200075f565b60405180910390fd5b620003c460008383620005a960201b60201c565b8060026000828254620003d89190620007af565b92505081905550806000808473ffffffffffffffffffffffffffffffffffffffff1673ffffffffffffffffffffffffffffffffffffffff16815260200190815260200160002060008282546200042f9190620007af565b925050819055508173ffffffffffffffffffffffffffffffffffffffff16600073ffffffffffffffffffffffffffffffffffffffff167fddf252ad1be2c89b69c2b068fc378daa952ba7f163c4a11628f55a4df523b3ef8360405162000496919062000781565b60405180910390a3620004b260008383620005ae60201b60201c565b5050565b6000806000905060005b81158015620004d3575060068054905081105b156200059f578373ffffffffffffffffffffffffffffffffffffffff166006828154811062000507576200050662000af1565b5b9060005260206000200160000160009054906101000a900473ffffffffffffffffffffffffffffffffffffffff1673ffffffffffffffffffffffffffffffffffffffff16148015620005875750600681815481106200056b576200056a62000af1565b5b9060005260206000200160000160149054906101000a900460ff165b91508080620005969062000a45565b915050620004c0565b8192505050919050565b505050565b505050565b828054620005c19062000a0f565b90600052602060002090601f016020900481019282620005e5576000855562000631565b82601f106200060057805160ff191683800117855562000631565b8280016001018555821562000631579182015b828111156200063057825182559160200191906001019062000613565b5b50905062000640919062000676565b5090565b6040518060400160405280600073ffffffffffffffffffffffffffffffffffffffff1681526020016000151581525090565b5b808211156200069157600081600090555060010162000677565b5090565b6000620006a4601f836200079e565b9150620006b18262000b2d565b602082019050919050565b6000620006cb6023836200079e565b9150620006d88262000b56565b604082019050919050565b6000620006f2601f836200079e565b9150620006ff8262000ba5565b602082019050919050565b620007158162000a05565b82525050565b60006020820190508181036000830152620007368162000695565b9050919050565b600060208201905081810360008301526200075881620006bc565b9050919050565b600060208201905081810360008301526200077a81620006e3565b9050919050565b60006020820190506200079860008301846200070a565b92915050565b600082825260208201905092915050565b6000620007bc8262000a05565b9150620007c98362000a05565b9250827fffffffffffffffffffffffffffffffffffffffffffffffffffffffffffffffff0382111562000801576200080062000a93565b5b828201905092915050565b6000808291508390505b60018511156200085e5780860481111562000836576200083562000a93565b5b6001851615620008465780820291505b8081029050620008568562000b20565b945062000816565b94509492505050565b6000620008748262000a05565b9150620008818362000a05565b9250620008b07fffffffffffffffffffffffffffffffffffffffffffffffffffffffffffffffff8484620008b8565b905092915050565b600082620008ca57600190506200099d565b81620008da57600090506200099d565b8160018114620008f35760028114620008fe5762000934565b60019150506200099d565b60ff84111562000913576200091262000a93565b5b8360020a9150848211156200092d576200092c62000a93565b5b506200099d565b5060208310610133831016604e8410600b84101617156200096e5782820a90508381111562000968576200096762000a93565b5b6200099d565b6200097d84848460016200080c565b9250905081840481111562000997576200099662000a93565b5b81810290505b9392505050565b6000620009b18262000a05565b9150620009be8362000a05565b9250817fffffffffffffffffffffffffffffffffffffffffffffffffffffffffffffffff0483118215151615620009fa57620009f962000a93565b5b828202905092915050565b6000819050919050565b6000600282049050600182168062000a2857607f821691505b6020821081141562000a3f5762000a3e62000ac2565b5b50919050565b600062000a528262000a05565b91507fffffffffffffffffffffffffffffffffffffffffffffffffffffffffffffffff82141562000a885762000a8762000a93565b5b600182019050919050565b7f4e487b7100000000000000000000000000000000000000000000000000000000600052601160045260246000fd5b7f4e487b7100000000000000000000000000000000000000000000000000000000600052602260045260246000fd5b7f4e487b7100000000000000000000000000000000000000000000000000000000600052603260045260246000fd5b60008160011c9050919050565b7f456c207573756172696f2079612065737461206461646f20646520616c746100600082015250565b7f4e6f206572657320656c2070726f706965746172696f2064656c20636f6e747260008201527f61746f0000000000000000000000000000000000000000000000000000000000602082015250565b7f45524332303a206d696e7420746f20746865207a65726f206164647265737300600082015250565b6128028062000bde6000396000f3fe608060405234801561001057600080fd5b50600436106101375760003560e01c80634e76a846116100b857806395d89b411161007c57806395d89b41146103635780639dc29fac14610381578063a457c2d71461039d578063a9059cbb146103cd578063da0321cd146103fd578063dd62ed3e1461041b57610137565b80634e76a846146102bf57806358bd16ca146102dd57806370a08231146102f95780638da5cb5b1461032957806391c05b0b1461034757610137565b806335c1d349116100ff57806335c1d349146101f657806339509351146102275780633ad998d31461025757806340c10f19146102735780634dfefc4b1461028f57610137565b806306fdde031461013c578063095ea7b31461015a57806318160ddd1461018a57806323b872dd146101a8578063313ce567146101d8575b600080fd5b61014461044b565b6040516101519190611d25565b60405180910390f35b610174600480360381019061016f9190611976565b6104dd565b6040516101819190611d0a565b60405180910390f35b610192610500565b60405161019f9190611ee7565b60405180910390f35b6101c260048036038101906101bd9190611923565b61050a565b6040516101cf9190611d0a565b60405180910390f35b6101e0610539565b6040516101ed9190611f02565b60405180910390f35b610210600480360381019061020b91906119b6565b610542565b60405161021e929190611cbf565b60405180910390f35b610241600480360381019061023c9190611976565b61059f565b60405161024e9190611d0a565b60405180910390f35b610271600480360381019061026c91906118b6565b6105d6565b005b61028d60048036038101906102889190611976565b6107ad565b005b6102a960048036038101906102a491906118b6565b61086c565b6040516102b69190611d0a565b60405180910390f35b6102c7610953565b6040516102d49190611ee7565b60405180910390f35b6102f760048036038101906102f291906118b6565b610959565b005b610313600480360381019061030e91906118b6565b610b66565b6040516103209190611ee7565b60405180910390f35b610331610bae565b60405161033e9190611ca4565b60405180910390f35b610361600480360381019061035c91906119b6565b610bd4565b005b61036b610c73565b6040516103789190611d25565b60405180910390f35b61039b60048036038101906103969190611976565b610d05565b005b6103b760048036038101906103b29190611976565b610dc4565b6040516103c49190611d0a565b60405180910390f35b6103e760048036038101906103e29190611976565b610e3b565b6040516103f49190611d0a565b60405180910390f35b610405610e5e565b6040516104129190611ce8565b60405180910390f35b610435600480360381019061043091906118e3565b610fb2565b6040516104429190611ee7565b60405180910390f35b60606003805461045a906122aa565b80601f0160208091040260200160405190810160405280929190818152602001828054610486906122aa565b80156104d35780601f106104a8576101008083540402835291602001916104d3565b820191906000526020600020905b8154815290600101906020018083116104b657829003601f168201915b5050505050905090565b6000806104e8611039565b90506104f5818585611041565b600191505092915050565b6000600254905090565b600080610515611039565b905061052285828561120c565b61052d858585611298565b60019150509392505050565b60006012905090565b6006818154811061055257600080fd5b906000526020600020016000915090508060000160009054906101000a900473ffffffffffffffffffffffffffffffffffffffff16908060000160149054906101000a900460ff16905082565b6000806105aa611039565b90506105cb8185856105bc8589610fb2565b6105c69190611f72565b611041565b600191505092915050565b600560009054906101000a900473ffffffffffffffffffffffffffffffffffffffff1673ffffffffffffffffffffffffffffffffffffffff163373ffffffffffffffffffffffffffffffffffffffff1614610666576040517f08c379a000000000000000000000000000000000000000000000000000000000815260040161065d90611e07565b60405180910390fd5b61066f8161086c565b156106af576040517f08c379a00000000000000000000000000000000000000000000000000000000081526004016106a690611d47565b60405180910390fd5b6106b761185a565b81816000019073ffffffffffffffffffffffffffffffffffffffff16908173ffffffffffffffffffffffffffffffffffffffff168152505060018160200190151590811515815250506006819080600181540180825580915050600190039060005260206000200160009091909190915060008201518160000160006101000a81548173ffffffffffffffffffffffffffffffffffffffff021916908373ffffffffffffffffffffffffffffffffffffffff16021790555060208201518160000160146101000a81548160ff0219169083151502179055505050600760008154809291906107a4906122dc565b91905055505050565b600560009054906101000a900473ffffffffffffffffffffffffffffffffffffffff1673ffffffffffffffffffffffffffffffffffffffff163373ffffffffffffffffffffffffffffffffffffffff161461083d576040517f08c379a000000000000000000000000000000000000000000000000000000000815260040161083490611e07565b60405180910390fd5b61086882610849610539565b60ff16600a610858919061204c565b83610863919061216a565b611519565b5050565b6000806000905060005b81158015610888575060068054905081105b15610949578373ffffffffffffffffffffffffffffffffffffffff16600682815481106108b8576108b76123b2565b5b9060005260206000200160000160009054906101000a900473ffffffffffffffffffffffffffffffffffffffff1673ffffffffffffffffffffffffffffffffffffffff16148015610934575060068181548110610918576109176123b2565b5b9060005260206000200160000160149054906101000a900460ff165b91508080610941906122dc565b915050610876565b8192505050919050565b60075481565b600560009054906101000a900473ffffffffffffffffffffffffffffffffffffffff1673ffffffffffffffffffffffffffffffffffffffff163373ffffffffffffffffffffffffffffffffffffffff16146109e9576040517f08c379a00000000000000000000000000000000000000000000000000000000081526004016109e090611e07565b60405180910390fd5b6109f28161086c565b610a31576040517f08c379a0000000000000000000000000000000000000000000000000000000008152600401610a2890611e47565b60405180910390fd5b6000805b81158015610a47575060068054905081105b15610b49578273ffffffffffffffffffffffffffffffffffffffff1660068281548110610a7757610a766123b2565b5b9060005260206000200160000160009054906101000a900473ffffffffffffffffffffffffffffffffffffffff1673ffffffffffffffffffffffffffffffffffffffff16148015610af3575060068181548110610ad757610ad66123b2565b5b9060005260206000200160000160149054906101000a900460ff165b91508115610b3657600060068281548110610b1157610b106123b2565b5b9060005260206000200160000160146101000a81548160ff0219169083151502179055505b8080610b41906122dc565b915050610a35565b60076000815480929190610b5c90612280565b9190505550505050565b60008060008373ffffffffffffffffffffffffffffffffffffffff1673ffffffffffffffffffffffffffffffffffffffff168152602001908152602001600020549050919050565b600560009054906101000a900473ffffffffffffffffffffffffffffffffffffffff1681565b60008111610be157600080fd5b6000610beb610e5e565b9050600081511115610c6f5760008151610c03610539565b60ff16600a610c12919061204c565b84610c1d919061216a565b610c279190611fc8565b905060005b8251811015610c6c57610c59838281518110610c4b57610c4a6123b2565b5b602002602001015183611519565b8080610c64906122dc565b915050610c2c565b50505b5050565b606060048054610c82906122aa565b80601f0160208091040260200160405190810160405280929190818152602001828054610cae906122aa565b8015610cfb5780601f10610cd057610100808354040283529160200191610cfb565b820191906000526020600020905b815481529060010190602001808311610cde57829003601f168201915b5050505050905090565b600560009054906101000a900473ffffffffffffffffffffffffffffffffffffffff1673ffffffffffffffffffffffffffffffffffffffff163373ffffffffffffffffffffffffffffffffffffffff1614610d95576040517f08c379a0000000000000000000000000000000000000000000000000000000008152600401610d8c90611e07565b60405180910390fd5b610dc082610da1610539565b60ff16600a610db0919061204c565b83610dbb919061216a565b611679565b5050565b600080610dcf611039565b90506000610ddd8286610fb2565b905083811015610e22576040517f08c379a0000000000000000000000000000000000000000000000000000000008152600401610e1990611ea7565b60405180910390fd5b610e2f8286868403611041565b60019250505092915050565b600080610e46611039565b9050610e53818585611298565b600191505092915050565b6060600060075467ffffffffffffffff811115610e7e57610e7d6123e1565b5b604051908082528060200260200182016040528015610eac5781602001602082028036833780820191505090505b509050600080600090505b600680549050811015610fa95760068181548110610ed857610ed76123b2565b5b9060005260206000200160000160149054906101000a900460ff1615610f965760068181548110610f0c57610f0b6123b2565b5b9060005260206000200160000160009054906101000a900473ffffffffffffffffffffffffffffffffffffffff16838381518110610f4d57610f4c6123b2565b5b602002602001019073ffffffffffffffffffffffffffffffffffffffff16908173ffffffffffffffffffffffffffffffffffffffff16815250508180610f92906122dc565b9250505b8080610fa1906122dc565b915050610eb7565b50819250505090565b6000600160008473ffffffffffffffffffffffffffffffffffffffff1673ffffffffffffffffffffffffffffffffffffffff16815260200190815260200160002060008373ffffffffffffffffffffffffffffffffffffffff1673ffffffffffffffffffffffffffffffffffffffff16815260200190815260200160002054905092915050565b600033905090565b600073ffffffffffffffffffffffffffffffffffffffff168373ffffffffffffffffffffffffffffffffffffffff1614156110b1576040517f08c379a00000000000000000000000000000000000000000000000000000000081526004016110a890611e87565b60405180910390fd5b600073ffffffffffffffffffffffffffffffffffffffff168273ffffffffffffffffffffffffffffffffffffffff161415611121576040517f08c379a000000000000000000000000000000000000000000000000000000000815260040161111890611da7565b60405180910390fd5b80600160008573ffffffffffffffffffffffffffffffffffffffff1673ffffffffffffffffffffffffffffffffffffffff16815260200190815260200160002060008473ffffffffffffffffffffffffffffffffffffffff1673ffffffffffffffffffffffffffffffffffffffff168152602001908152602001600020819055508173ffffffffffffffffffffffffffffffffffffffff168373ffffffffffffffffffffffffffffffffffffffff167f8c5be1e5ebec7d5bd14f71427d1e84f3dd0314c0f7b2291e5b200ac8c7c3b925836040516111ff9190611ee7565b60405180910390a3505050565b60006112188484610fb2565b90507fffffffffffffffffffffffffffffffffffffffffffffffffffffffffffffffff81146112925781811015611284576040517f08c379a000000000000000000000000000000000000000000000000000000000815260040161127b90611dc7565b60405180910390fd5b6112918484848403611041565b5b50505050565b600073ffffffffffffffffffffffffffffffffffffffff168373ffffffffffffffffffffffffffffffffffffffff161415611308576040517f08c379a00000000000000000000000000000000000000000000000000000000081526004016112ff90611e67565b60405180910390fd5b600073ffffffffffffffffffffffffffffffffffffffff168273ffffffffffffffffffffffffffffffffffffffff161415611378576040517f08c379a000000000000000000000000000000000000000000000000000000000815260040161136f90611d67565b60405180910390fd5b611383838383611850565b60008060008573ffffffffffffffffffffffffffffffffffffffff1673ffffffffffffffffffffffffffffffffffffffff16815260200190815260200160002054905081811015611409576040517f08c379a000000000000000000000000000000000000000000000000000000000815260040161140090611de7565b60405180910390fd5b8181036000808673ffffffffffffffffffffffffffffffffffffffff1673ffffffffffffffffffffffffffffffffffffffff16815260200190815260200160002081905550816000808573ffffffffffffffffffffffffffffffffffffffff1673ffffffffffffffffffffffffffffffffffffffff168152602001908152602001600020600082825461149c9190611f72565b925050819055508273ffffffffffffffffffffffffffffffffffffffff168473ffffffffffffffffffffffffffffffffffffffff167fddf252ad1be2c89b69c2b068fc378daa952ba7f163c4a11628f55a4df523b3ef846040516115009190611ee7565b60405180910390a3611513848484611855565b50505050565b600073ffffffffffffffffffffffffffffffffffffffff168273ffffffffffffffffffffffffffffffffffffffff161415611589576040517f08c379a000000000000000000000000000000000000000000000000000000000815260040161158090611ec7565b60405180910390fd5b61159560008383611850565b80600260008282546115a79190611f72565b92505081905550806000808473ffffffffffffffffffffffffffffffffffffffff1673ffffffffffffffffffffffffffffffffffffffff16815260200190815260200160002060008282546115fc9190611f72565b925050819055508173ffffffffffffffffffffffffffffffffffffffff16600073ffffffffffffffffffffffffffffffffffffffff167fddf252ad1be2c89b69c2b068fc378daa952ba7f163c4a11628f55a4df523b3ef836040516116619190611ee7565b60405180910390a361167560008383611855565b5050565b600073ffffffffffffffffffffffffffffffffffffffff168273ffffffffffffffffffffffffffffffffffffffff1614156116e9576040517f08c379a00000000000000000000000000000000000000000000000000000000081526004016116e090611e27565b60405180910390fd5b6116f582600083611850565b60008060008473ffffffffffffffffffffffffffffffffffffffff1673ffffffffffffffffffffffffffffffffffffffff1681526020019081526020016000205490508181101561177b576040517f08c379a000000000000000000000000000000000000000000000000000000000815260040161177290611d87565b60405180910390fd5b8181036000808573ffffffffffffffffffffffffffffffffffffffff1673ffffffffffffffffffffffffffffffffffffffff1681526020019081526020016000208190555081600260008282546117d291906121c4565b92505081905550600073ffffffffffffffffffffffffffffffffffffffff168373ffffffffffffffffffffffffffffffffffffffff167fddf252ad1be2c89b69c2b068fc378daa952ba7f163c4a11628f55a4df523b3ef846040516118379190611ee7565b60405180910390a361184b83600084611855565b505050565b505050565b505050565b6040518060400160405280600073ffffffffffffffffffffffffffffffffffffffff1681526020016000151581525090565b60008135905061189b8161279e565b92915050565b6000813590506118b0816127b5565b92915050565b6000602082840312156118cc576118cb612410565b5b60006118da8482850161188c565b91505092915050565b600080604083850312156118fa576118f9612410565b5b60006119088582860161188c565b92505060206119198582860161188c565b9150509250929050565b60008060006060848603121561193c5761193b612410565b5b600061194a8682870161188c565b935050602061195b8682870161188c565b925050604061196c868287016118a1565b9150509250925092565b6000806040838503121561198d5761198c612410565b5b600061199b8582860161188c565b92505060206119ac858286016118a1565b9150509250929050565b6000602082840312156119cc576119cb612410565b5b60006119da848285016118a1565b91505092915050565b60006119ef83836119fb565b60208301905092915050565b611a04816121f8565b82525050565b611a13816121f8565b82525050565b6000611a2482611f2d565b611a2e8185611f50565b9350611a3983611f1d565b8060005b83811015611a6a578151611a5188826119e3565b9750611a5c83611f43565b925050600181019050611a3d565b5085935050505092915050565b611a808161220a565b82525050565b6000611a9182611f38565b611a9b8185611f61565b9350611aab81856020860161224d565b611ab481612415565b840191505092915050565b6000611acc601f83611f61565b9150611ad782612433565b602082019050919050565b6000611aef602383611f61565b9150611afa8261245c565b604082019050919050565b6000611b12602283611f61565b9150611b1d826124ab565b604082019050919050565b6000611b35602283611f61565b9150611b40826124fa565b604082019050919050565b6000611b58601d83611f61565b9150611b6382612549565b602082019050919050565b6000611b7b602683611f61565b9150611b8682612572565b604082019050919050565b6000611b9e602383611f61565b9150611ba9826125c1565b604082019050919050565b6000611bc1602183611f61565b9150611bcc82612610565b604082019050919050565b6000611be4601483611f61565b9150611bef8261265f565b602082019050919050565b6000611c07602583611f61565b9150611c1282612688565b604082019050919050565b6000611c2a602483611f61565b9150611c35826126d7565b604082019050919050565b6000611c4d602583611f61565b9150611c5882612726565b604082019050919050565b6000611c70601f83611f61565b9150611c7b82612775565b602082019050919050565b611c8f81612236565b82525050565b611c9e81612240565b82525050565b6000602082019050611cb96000830184611a0a565b92915050565b6000604082019050611cd46000830185611a0a565b611ce16020830184611a77565b9392505050565b60006020820190508181036000830152611d028184611a19565b905092915050565b6000602082019050611d1f6000830184611a77565b92915050565b60006020820190508181036000830152611d3f8184611a86565b905092915050565b60006020820190508181036000830152611d6081611abf565b9050919050565b60006020820190508181036000830152611d8081611ae2565b9050919050565b60006020820190508181036000830152611da081611b05565b9050919050565b60006020820190508181036000830152611dc081611b28565b9050919050565b60006020820190508181036000830152611de081611b4b565b9050919050565b60006020820190508181036000830152611e0081611b6e565b9050919050565b60006020820190508181036000830152611e2081611b91565b9050919050565b60006020820190508181036000830152611e4081611bb4565b9050919050565b60006020820190508181036000830152611e6081611bd7565b9050919050565b60006020820190508181036000830152611e8081611bfa565b9050919050565b60006020820190508181036000830152611ea081611c1d565b9050919050565b60006020820190508181036000830152611ec081611c40565b9050919050565b60006020820190508181036000830152611ee081611c63565b9050919050565b6000602082019050611efc6000830184611c86565b92915050565b6000602082019050611f176000830184611c95565b92915050565b6000819050602082019050919050565b600081519050919050565b600081519050919050565b6000602082019050919050565b600082825260208201905092915050565b600082825260208201905092915050565b6000611f7d82612236565b9150611f8883612236565b9250827fffffffffffffffffffffffffffffffffffffffffffffffffffffffffffffffff03821115611fbd57611fbc612325565b5b828201905092915050565b6000611fd382612236565b9150611fde83612236565b925082611fee57611fed612354565b5b828204905092915050565b6000808291508390505b60018511156120435780860481111561201f5761201e612325565b5b600185161561202e5780820291505b808102905061203c85612426565b9450612003565b94509492505050565b600061205782612236565b915061206283612236565b925061208f7fffffffffffffffffffffffffffffffffffffffffffffffffffffffffffffffff8484612097565b905092915050565b6000826120a75760019050612163565b816120b55760009050612163565b81600181146120cb57600281146120d557612104565b6001915050612163565b60ff8411156120e7576120e6612325565b5b8360020a9150848211156120fe576120fd612325565b5b50612163565b5060208310610133831016604e8410600b84101617156121395782820a90508381111561213457612133612325565b5b612163565b6121468484846001611ff9565b9250905081840481111561215d5761215c612325565b5b81810290505b9392505050565b600061217582612236565b915061218083612236565b9250817fffffffffffffffffffffffffffffffffffffffffffffffffffffffffffffffff04831182151516156121b9576121b8612325565b5b828202905092915050565b60006121cf82612236565b91506121da83612236565b9250828210156121ed576121ec612325565b5b828203905092915050565b600061220382612216565b9050919050565b60008115159050919050565b600073ffffffffffffffffffffffffffffffffffffffff82169050919050565b6000819050919050565b600060ff82169050919050565b60005b8381101561226b578082015181840152602081019050612250565b8381111561227a576000848401525b50505050565b600061228b82612236565b9150600082141561229f5761229e612325565b5b600182039050919050565b600060028204905060018216806122c257607f821691505b602082108114156122d6576122d5612383565b5b50919050565b60006122e782612236565b91507fffffffffffffffffffffffffffffffffffffffffffffffffffffffffffffffff82141561231a57612319612325565b5b600182019050919050565b7f4e487b7100000000000000000000000000000000000000000000000000000000600052601160045260246000fd5b7f4e487b7100000000000000000000000000000000000000000000000000000000600052601260045260246000fd5b7f4e487b7100000000000000000000000000000000000000000000000000000000600052602260045260246000fd5b7f4e487b7100000000000000000000000000000000000000000000000000000000600052603260045260246000fd5b7f4e487b7100000000000000000000000000000000000000000000000000000000600052604160045260246000fd5b600080fd5b6000601f19601f8301169050919050565b60008160011c9050919050565b7f456c207573756172696f2079612065737461206461646f20646520616c746100600082015250565b7f45524332303a207472616e7366657220746f20746865207a65726f206164647260008201527f6573730000000000000000000000000000000000000000000000000000000000602082015250565b7f45524332303a206275726e20616d6f756e7420657863656564732062616c616e60008201527f6365000000000000000000000000000000000000000000000000000000000000602082015250565b7f45524332303a20617070726f766520746f20746865207a65726f20616464726560008201527f7373000000000000000000000000000000000000000000000000000000000000602082015250565b7f45524332303a20696e73756666696369656e7420616c6c6f77616e6365000000600082015250565b7f45524332303a207472616e7366657220616d6f756e742065786365656473206260008201527f616c616e63650000000000000000000000000000000000000000000000000000602082015250565b7f4e6f206572657320656c2070726f706965746172696f2064656c20636f6e747260008201527f61746f0000000000000000000000000000000000000000000000000000000000602082015250565b7f45524332303a206275726e2066726f6d20746865207a65726f2061646472657360008201527f7300000000000000000000000000000000000000000000000000000000000000602082015250565b7f456c207573756172696f206e6f20657869737465000000000000000000000000600082015250565b7f45524332303a207472616e736665722066726f6d20746865207a65726f20616460008201527f6472657373000000000000000000000000000000000000000000000000000000602082015250565b7f45524332303a20617070726f76652066726f6d20746865207a65726f2061646460008201527f7265737300000000000000000000000000000000000000000000000000000000602082015250565b7f45524332303a2064656372656173656420616c6c6f77616e63652062656c6f7760008201527f207a65726f000000000000000000000000000000000000000000000000000000602082015250565b7f45524332303a206d696e7420746f20746865207a65726f206164647265737300600082015250565b6127a7816121f8565b81146127b257600080fd5b50565b6127be81612236565b81146127c957600080fd5b5056fea2646970667358221220e01e22c6afd1fd0127b7bd4c12f200ff8605401f60728b8efce5c98c7c1e74fe64736f6c63430008060033",
  "immutableReferences": {},
  "source": "//SPDX-License-Identifier:MIT\r\npragma solidity ^0.8.6;\r\npragma experimental ABIEncoderV2;\r\n\r\nimport \"@openzeppelin/contracts/token/ERC20/ERC20.sol\";\r\n\r\ncontract Token is ERC20 {\r\n    address public owner;\r\n\r\n    struct Participant {\r\n        address p;\r\n        bool alive;\r\n    }\r\n\r\n    Participant[] public participants;\r\n    uint256 public numParticipants;\r\n\r\n    constructor() ERC20(\"iToken\", \"ILT\") {\r\n        owner = msg.sender;\r\n        newParticipant(msg.sender);\r\n        _mint(msg.sender, 1000 * (10**uint256(decimals())));\r\n    }\r\n\r\n    function exist(address _search) public view returns (bool) {\r\n        bool found = false;\r\n        uint256 i = 0;\r\n\r\n        while (!found && i < participants.length) {\r\n            found = participants[i].p == _search && participants[i].alive;\r\n            i++;\r\n        }\r\n\r\n        return found;\r\n    }\r\n\r\n    function newParticipant(address _newPart) public {\r\n        require(msg.sender == owner, \"No eres el propietario del contrato\");\r\n        require(!exist(_newPart), \"El usuario ya esta dado de alta\");\r\n        Participant memory regPart;\r\n        regPart.p = _newPart;\r\n        regPart.alive = true;\r\n        participants.push(regPart);\r\n        numParticipants++;\r\n    }\r\n\r\n    function delParticipant(address _delPart) public {\r\n        require(msg.sender == owner, \"No eres el propietario del contrato\");\r\n        require(exist(_delPart), \"El usuario no existe\");\r\n\r\n        bool found = false;\r\n        uint256 i = 0;\r\n\r\n        while (!found && i < participants.length) {\r\n            found = participants[i].p == _delPart && participants[i].alive;\r\n            if (found) {\r\n                participants[i].alive = false;\r\n            }\r\n            i++;\r\n        }\r\n\r\n        numParticipants--;\r\n    }\r\n\r\n    function mint(address _to, uint256 amount) public {\r\n        require(msg.sender == owner, \"No eres el propietario del contrato\");\r\n        _mint(_to, amount * (10**uint256(decimals())));\r\n    }\r\n\r\n    function burn(address _from, uint256 amount) public {\r\n        require(msg.sender == owner, \"No eres el propietario del contrato\");\r\n        _burn(_from, amount * (10**uint256(decimals())));\r\n    }\r\n\r\n    function distribute(uint256 price) public {\r\n        require(price > 0);\r\n        address[] memory list = addresses();\r\n        if (list.length > 0) {\r\n            uint256 amount = (price * (10**uint256(decimals()))) / list.length;\r\n            for (uint256 i = 0; i < list.length; i++) {\r\n                _mint(list[i], amount);\r\n            }\r\n        }\r\n    }\r\n\r\n    function addresses() public view returns (address[] memory) {\r\n        address[] memory address_list = new address[](numParticipants);\r\n        uint256 index;\r\n\r\n        for (uint256 i = 0; i < participants.length; i++) {\r\n            if (participants[i].alive) {\r\n                address_list[index] = participants[i].p;\r\n                index++;\r\n            }\r\n        }\r\n\r\n        return address_list;\r\n    }\r\n}\r\n",
  "sourcePath": "D:\\Workspace\\Ethereum\\carmen_task_vote\\contracts\\itoken.sol",
  "compiler": {
    "name": "solc",
    "version": "0.8.6+commit.11564f7e.Emscripten.clang"
  },
  "schemaVersion": "3.4.7",
  "updatedAt": "2022-05-24T19:08:51.402Z",
  "networkType": "ethereum",
  "devdoc": {
    "kind": "dev",
    "methods": {
      "allowance(address,address)": {
        "details": "See {IERC20-allowance}."
      },
      "approve(address,uint256)": {
        "details": "See {IERC20-approve}. NOTE: If `amount` is the maximum `uint256`, the allowance is not updated on `transferFrom`. This is semantically equivalent to an infinite approval. Requirements: - `spender` cannot be the zero address."
      },
      "balanceOf(address)": {
        "details": "See {IERC20-balanceOf}."
      },
      "decimals()": {
        "details": "Returns the number of decimals used to get its user representation. For example, if `decimals` equals `2`, a balance of `505` tokens should be displayed to a user as `5.05` (`505 / 10 ** 2`). Tokens usually opt for a value of 18, imitating the relationship between Ether and Wei. This is the value {ERC20} uses, unless this function is overridden; NOTE: This information is only used for _display_ purposes: it in no way affects any of the arithmetic of the contract, including {IERC20-balanceOf} and {IERC20-transfer}."
      },
      "decreaseAllowance(address,uint256)": {
        "details": "Atomically decreases the allowance granted to `spender` by the caller. This is an alternative to {approve} that can be used as a mitigation for problems described in {IERC20-approve}. Emits an {Approval} event indicating the updated allowance. Requirements: - `spender` cannot be the zero address. - `spender` must have allowance for the caller of at least `subtractedValue`."
      },
      "increaseAllowance(address,uint256)": {
        "details": "Atomically increases the allowance granted to `spender` by the caller. This is an alternative to {approve} that can be used as a mitigation for problems described in {IERC20-approve}. Emits an {Approval} event indicating the updated allowance. Requirements: - `spender` cannot be the zero address."
      },
      "name()": {
        "details": "Returns the name of the token."
      },
      "symbol()": {
        "details": "Returns the symbol of the token, usually a shorter version of the name."
      },
      "totalSupply()": {
        "details": "See {IERC20-totalSupply}."
      },
      "transfer(address,uint256)": {
        "details": "See {IERC20-transfer}. Requirements: - `to` cannot be the zero address. - the caller must have a balance of at least `amount`."
      },
      "transferFrom(address,address,uint256)": {
        "details": "See {IERC20-transferFrom}. Emits an {Approval} event indicating the updated allowance. This is not required by the EIP. See the note at the beginning of {ERC20}. NOTE: Does not update the allowance if the current allowance is the maximum `uint256`. Requirements: - `from` and `to` cannot be the zero address. - `from` must have a balance of at least `amount`. - the caller must have allowance for ``from``'s tokens of at least `amount`."
      }
    },
    "version": 1
  },
  "userdoc": {
    "kind": "user",
    "methods": {},
    "version": 1
  }
}